:020000040800F2
:10000000900B002089010008C3180008051500089E
:10001000C11800087F0300082D1D00080000000023
:10002000000000000000000000000000BB1C0008F1
:100030008103000800000000B91C0008BD1C000876
:10004000A3010008A3010008A3010008A301000800
:10005000A3010008A3010008A3010008A3010008F0
:10006000A3010008A3010008A3010008A3010008E0
:10007000A3010008A3010008A3010008A3010008D0
:10008000A3010008A3010008A3010008A3010008C0
:10009000211D0008A3010008A3010008A301000816
:1000A000A3010008A3010008A3010008A3010008A0
:1000B000A3010008A3010008A3010008A301000890
:1000C000A3010008A3010008A3010008A301000880
:1000D000A3010008A3010008A3010008A301000870
:1000E000A3010008A3010008A301000800F002F822
:1000F00000F03AF80AA090E8000C82448344AAF188
:100100000107DA4501D100F02FF8AFF2090EBAE885
:100110000F0013F0010F18BFFB1A43F0010318473B
:10012000CC200000EC200000103A24BF78C878C131
:10013000FAD8520724BF30C830C144BF04680C60ED
:10014000704700000023002400250026103A28BF35
:1001500078C1FBD8520728BF30C148BF0B60704739
:100160001FB51FBD10B510BD00F0CFF81146FFF749
:10017000F7FF01F0EDFD00F0EDF803B4FFF7F2FF3B
:1001800003BC00F0F5F80000094880470948004723
:10019000FEE7FEE7FEE7FEE7FEE7FEE7FEE7FEE737
:1001A000FEE7FEE704480549054A064B7047000094
:1001B0001F1D0008ED00000890050020900B002096
:1001C0009007002090070020032A40F2308010F0B2
:1001D000030C00F0158011F8013BBCF1020F6244E2
:1001E00098BF11F801CB00F8013B38BF11F8013B73
:1001F000A2F1040298BF00F801CB38BF00F8013B20
:1002000011F0030300F02580083AC0F0088051F88F
:10021000043B083A51F804CBA0E80810F5E7121D9A
:100220005CBF51F8043B40F8043BAFF30080D207B9
:1002300024BF11F8013B11F801CB48BF11F8012B85
:1002400024BF00F8013B00F801CB48BF00F8012BA8
:10025000704710B5203AC0F00B80B1E81850203A32
:10026000A0E81850B1E81850A0E81850BFF4F5AF56
:100270005FEA027C24BFB1E81850A0E8185044BFE0
:1002800018C918C0BDE810405FEA827C24BF51F84D
:10029000043B40F8043B08BF7047D20728BF31F841
:1002A000023B48BF11F8012B28BF20F8023B48BF92
:1002B00000F8012B70474FF0000200B5134694463A
:1002C0009646203922BFA0E80C50A0E80C50B1F1AE
:1002D0002001BFF4F7AF090728BFA0E80C5048BFC2
:1002E0000CC05DF804EB890028BF40F8042B08BF60
:1002F000704748BF20F8022B11F0804F18BF00F85C
:10030000012B7047704770477047754600F02CF816
:10031000AE4605006946534620F00700854618B0F2
:1003200020B5FFF73FFFBDE820404FF000064FF03B
:1003300000074FF000084FF0000B21F00701AC461A
:10034000ACE8C009ACE8C009ACE8C009ACE8C00939
:100350008D46704710B50446AFF300802046BDE8D7
:100360001040FFF70ABF0000004870472C0500202E
:1003700001491820ABBEFEE7260002007047FEE7E9
:10038000704772B6FEE790F82020012A07D0022AB3
:1003900005D0416A41F48021416201207047006824
:1003A00042690A43426100207047000010B590F88E
:1003B00020300268012B07D0022B05D0416A41F49E
:1003C00080214162012010BDD2F8000240F00100FE
:1003D000C2F80002087D00F01F0301209840D2F807
:1003E0001C328343C2F81C32CB69B3B9D2F80C3249
:1003F0008343C2F80C328C894B6864F31F434C6909
:1004000002EBC404C4F840320C890B6864F31F4348
:100410004C6902EBC404C4F84432CB69012B16D1F9
:10042000D2F80C320343C2F80C320C884B6864F3E8
:100430001F434C6902EBC404C4F840320C89CB68FA
:1004400064F31F434C6902EBC404C4F844328B6963
:10045000002BD2F804320FD053EA0003C2F8043262
:100460000B69002BD2F8143208D00343C2F81432BF
:10047000096A012904D008E08343EFE78343F5E7E5
:10048000D2F81C120143C2F81C12D2F8000220F06C
:100490000100C2F80002002010BD704770B590F84E
:1004A0002040012C05D0022C03D0416A41F4802168
:1004B00028E0046809B32469A40720D04FF4D87455
:1004C000056804EB01142D5915F0040595600568C5
:1004D0002D591AD0ED08556005682C5904F0020416
:1004E000D4604FF4DA74056804EB01142E5906F059
:1004F0000F06082E0CD308250DE0E468DCE7416AFE
:1005000041F400114162012070BD6D0D1560E3E7FB
:100510002D5905F00F05156105682D59C5F30725FF
:10052000956105682C59240C54614FF4DC72046801
:1005300002EB0112A4581C700468A458240A5C70D1
:100540000468A458240C9C700468A258120EDA7037
:100550004FF4DE72046802EB0112A4581C710468A7
:10056000A458240A5C710468A458240C9C71046883
:10057000A258120EDA71006829B1016941F0200118
:100580000161002070BDC16841F02001C160F8E741
:100590002DE9F05F0546006800244669D0F8049014
:1005A0008768D0F80CB0D0F810A0D0F81880F10708
:1005B00048D0F90714D001218160B80703D5284637
:1005C00000F001FA0CE0780702D54FF4006407E070
:1005D000380702D54FF4805402E0284600F0F2F9C3
:1005E000F80516D529684FF480708860B80503D5E2
:1005F000284600F0EAF90CE0780502D544F40054EE
:1006000007E0380502D544F4804402E0284600F0B3
:10061000DBF9F80316D529684FF480308860B803F9
:1006200003D5284600F0D3F90CE0780302D544F452
:10063000004407E0380302D544F4803402E0284641
:1006400000F0C4F9300707D55FEACB6004D529680C
:10065000102044F40074C86070074FF0080707D5F5
:100660005FEA0B7004D52868C760284600F05AF985
:10067000B00706D52868C068800702D0284600F079
:1006800053F9700607D55FEACA6004D529681020BF
:1006900044F480640861B00607D55FEA0A7004D5A7
:1006A00028680761284600F05DF9F00606D528683D
:1006B0000069800702D0284600F055F9B00308D53C
:1006C0005FEAC96005D5296810204860284600F017
:1006D0004BF9F00307D55FEA097004D52868476035
:1006E000284600F075F9300446D55FEA497040D5D8
:1006F000F00504D55FEAC87001D044F00104B005EC
:1007000004D55FEA887001D544F00204700504D571
:100710005FEA487001D544F00404300529D518F08B
:10072000700F26D008F07000402815D006DC102885
:1007300009D020280AD0302816D10AE050280ED03F
:10074000602811D10EE044F008040DE044F01004DC
:100750000AE044F0200407E044F0400404E044F0E0
:10076000800401E044F480742868816921F07001FC
:100770008161296804204860002C05D0686A204304
:1007800068622846FFF789FEBDE8F09F70B5040057
:1007900003D094F8200010B104E0012070BD204681
:1007A00000F082F82068016841F00101016000F06A
:1007B00013FA0546052604E000F00EFA401B0A284D
:1007C00011D820684068C007F6D02068016821F081
:1007D0000201016000F000FA05460BE000F0FCF9B0
:1007E000401B0A2806D9606A40F40030606284F831
:1007F0002060D2E7206840688007EFD4207E01287F
:10080000206801683DD021F080010160607E0128F0
:100810002068016838D021F040010160A07E0128E5
:100820002068016833D021F020010160E07E0128BA
:10083000206801682ED041F010010160207F01285E
:100840002068016829D021F008010160607F01283B
:100850002068016824D021F004010160D4E902017C
:100860000843D4E90412114308436168491E084350
:100870002168C86100206062012084F82000002007
:1008800070BD41F08001C0E741F04001C5E741F093
:100890002001CAE721F01001CFE741F00801D4E7B9
:1008A00041F00401D9E7000010B586B000210091A5
:1008B0000191029103910068174988422AD1174893
:1008C000C16941F00071C161C16901F00071049119
:1008D000816941F0040181618069114C00F00400DC
:1008E00004904FF4006000906946204600F084F8C0
:1008F000A014009002200190032003906946204636
:1009000000F07AF800221146142000F059FB142060
:1009100000F048FB06B010BD00640040001002402B
:10092000000801407047000030B50D4D89B001242A
:100930002C7007AB6A460021FFF7B0FD08B172B614
:10094000FEE70098012809D10398002806D1044841
:1009500007A9401C049AFFF737FC2C7009B030BD82
:1009600000000020704770477047000070B50446D3
:1009700090F82000012804D0606A40F400206062F2
:1009800018E0022084F820002068016821F00101AD
:10099000016000F021F905460EE000BF00F01CF9EF
:1009A000401B0A2808D9606A40F4003060620520C4
:1009B00084F82000012070BD20684068C007EDD198
:1009C000606270BD704770477047704770477047EE
:1009D0007047000070B5044600F0FEF80546601C44
:1009E00002D004480078044400F0F6F8401BA0420E
:1009F000FAD370BD180000202DE9F84FDFF8B89148
:100A00000024A9F1040B23460F2709F1040AABF1D6
:100A1000040EC9E00125A5402A40AA427DD1674EB7
:100A2000D1F804C0ACEB0608B44532D014DCBCF1FC
:100A3000030F3AD009DCBCF1000F2AD0BCF1010F42
:100A40001CD0BCF1020F31D11DE0BCF1110F17D049
:100A5000BCF1120F2AD119E0B8F5881F19D006DCB5
:100A6000B8F5803F15D0B8F5801F1FD111E0B8F55B
:100A7000001F0ED0B8F5041F18D10AE0CB6815E0AE
:100A8000CB681B1D12E0CB6808330FE0CB680C333A
:100A90000CE08B682BB1012B4FF0080303D04561AC
:100AA00004E0042302E0056100E00023FF2A01D8EE
:100AB000064601E000F104064FEA840501D9A5F1DC
:100AC0002005D6F8008007FA05FC28EA0C0803FA8E
:100AD00005F548EA0508C6F800804D68ED0062D5C6
:100AE000374DAE6946F00106AE61AD6924F00306EC
:100AF00005F001050095334D06EB050CDCF80850B8
:100B0000A607360F07FA06F825EA0805DFF8B880C9
:100B1000404503D14FF0000817E044E0DFF8AC8017
:100B2000404502D14FF001080FE0DFF8A4804045B6
:100B300002D14FF0020808E0DFF89880404502D16A
:100B40004FF0030801E04FF0040808FA06F848EAFD
:100B50000508CCF808804D68D9F80060ED024D46D4
:100B600001D5164300E096432E604D68DAF8006028
:100B7000AD02554601D5164300E096432E604D6800
:100B8000DBF80060AD035D4601D5164300E09643F7
:100B90002E604D68DEF80060ED03754601D5164302
:100BA00000E096432E60641C0D682A46E5407FF401
:100BB00031AFBDE8F88F00000804014000001110BB
:100BC000001002400000014000080140000C0140FC
:100BD0000010014000140140014880687047000087
:100BE0001800002070B5040025D094F83D000025C1
:100BF00020B984F83C50204600F04EF9242084F8B7
:100C00003D002068016821F0010101602068016851
:100C100041F4004101602068016821F40041016055
:100C200000F096FA4D4A6168914201D84C4900E0C3
:100C30004C49884201D2012070BD4B492368B0FB6A
:100C4000F1F15E6826F03F060E435E6063689342F2
:100C500006D94FF4967359434FF47A73B1FBF3F10D
:100C60002368491C1E6A26F03F06314319626168F9
:100C7000914210D84900401EB0FBF1F2521CC2F361
:100C80000B02042A01D2042022E0B0FBF1F0401C48
:100C9000C0F30B001CE0A268F2B301EBC10303EB4D
:100CA0000116431EB3FBF6F35B1C43F480431B05A4
:100CB00049D092B301EBC10202EB0111401EB0FB1F
:100CC000F1F0401CC0F30B0040F4804040F40040C1
:100CD0002168CA694CF6FF739A431043C861D4E98E
:100CE000071001432068026822F0C002114301602E
:100CF000D4E9030101432068826848F2FF339A4334
:100D000011438160D4E9050108432168CA6822F0D3
:100D1000FF021043C86001E00EE016E020680168A1
:100D200041F0010101602564202084F83D00256325
:100D300084F83E50002070BD01EB4106431EB3FB1A
:100D4000F6F35B1CB3E70120C2E701EB4101401E53
:100D5000B0FBF1F0401CC0F30B00B7E7A086010028
:100D600080841E0000093D0040420F002DE9F84F2D
:100D70001F4690468A460446DDF82890FFF72CFF70
:100D8000054694F83D0020287FD1192301224049CF
:100D90002046009500F048FC002876D194F83C00ED
:100DA000012872D0012084F83C0020680168C9073E
:100DB00003D1016841F0010101602068016821F45C
:100DC00000610160212084F83D00102084F83E007D
:100DD00000262664C4F824806785608D20852D4810
:100DE000E0622B464A465146204600F0A3FB90B9EC
:100DF000206841698069009036E02A4649462046CD
:100E000000F0B8FC50B1206C042804D120680168BF
:100E100041F4007101600120BDE8F88F606A21682B
:100E200000780861606A401C6062618D491E6185BE
:100E3000218D491E89B2218522685369DB435B07F6
:100E40000BD451B100781061606A401C6062608D03
:100E5000401E6085208D401E20852A46494620463A
:100E600000F0B6FB0028CED1208D0028C5D154F863
:100E70003D0B016841F400710160202004F81E0957
:100E8000E67766770020C7E7FFE70220C4E70000A7
:100E9000020010000000FFFF10B586B00021009195
:100EA00001910291039100680F4988421AD10F4CB9
:100EB000A06940F00800A061A069694600F0080040
:100EC0000490C02000901220019003200390084855
:100ED000FFF792FDE06940F40010E061E06900F482
:100EE0000010049006B010BD0054004000100240F5
:100EF000000C01400248816802781144816070470B
:100F000018000020074810B5016841F01001016089
:100F1000032000F075F80F2000F006F800F024F828
:100F2000002010BD0020024070B50D4D04464FF466
:100F30007A712878B1FBF0F00A490968B1FBF0F04A
:100F400000F0CCFA48B9102C07D200222146501EDE
:100F500000F036F800206C6070BD012070BD00000C
:100F600018000020240000200C4808B5816941F0D9
:100F700001018161816901F001010091C16941F0C4
:100F80008051C161C06900F0805000900448416800
:100F900021F0E06141F00071416008BD00100240A5
:100FA00000000140002809DB00F01F0201219140F0
:100FB0004009800000F1E020C0F8001170470000F7
:100FC000F0B40E4B1B680C46C3F30223C3F10705B4
:100FD000042D00D90425191D072901D2002300E0A2
:100FE000DB1E012606FA05F1491E214099409E406C
:100FF000761E16403143F0BC00F099BE0CED00E0C7
:10100000064900F0070208684FF6FF03184040EA5F
:101010000220034A10430860704700000CED00E016
:101020000000FA052DE9F0470F46050061D0434E58
:10103000306800F00700B84209D2306820F007009D
:1010400038433060306800F00700B84251D128685A
:101050003B4C810712D5400703D5606840F4E0603F
:1010600060602878000703D5606840F460506060D5
:101070006068A96820F0F000084360602878C00725
:1010800028D06868012810D02168022810D089076C
:1010900000292EDA616821F0030101436160FFF746
:1010A0009BFD804641F288390DE021688903EFE716
:1010B0008901EDE7FFF790FDA0EB0801494502D952
:1010C0000320BDE8F0876068696800F00C00B0EBB1
:1010D000810FEFD1306800F00700B8420BD93068BB
:1010E00020F0070038433060306800F00700B84255
:1010F00001D00120E5E72878400705D56068E96858
:1011000020F4E060084360602878000706D5606836
:10111000296920F4605040EAC100606000F028F8BE
:101120006168084AC1F30311515CC8400649086070
:1011300006480068FFF7F8FE0020C2E700200240E2
:1011400000100240D21D0008240000201C000020D6
:101150000448054900684968044AC1F30221515C0A
:10116000C84070472400002000100240E21D000823
:101170000E4A51680E4801F00C03042B11D0082BC5
:101180000FD10C48C1F38343C903C05C0AD5516831
:10119000084AC1F34041921E515C054A5043B0FBDE
:1011A000F1F07047044948437047000000100240C6
:1011B00000127A00C21D000800093D002DE9F84F19
:1011C000040070D02078C04DC00749D06868C0F3D3
:1011D0008100012807D06868C0F38100022809D186
:1011E0006868C00306D52868800339D56068002880
:1011F000E7D035E06068B0F5803F0BD010B1B0F5B6
:10120000A02F11D0286820F480302860286820F4AE
:10121000802002E0286840F480302860606890B147
:10122000FFF7DAFC06460AE0286840F480202860D0
:10123000F0E700BFFFF7D0FC801B642873D8286854
:101240008003F7D50CE0FFF7C7FC064605E000BFBA
:10125000FFF7C2FC801B6428F0D828688003F7D40D
:1012600020789A4E80074FF001094FF0000839D5D9
:10127000686810F00C0F07D06868C0F3810002287E
:1012800009D16868C00306D42868800714D520698E
:10129000012808D110E02069B0B1C6F80090FFF72E
:1012A0009BFC074605E00AE1FFF796FCC01B0228FD
:1012B000C4D828688007F7D52868616920F0F8004D
:1012C00040EAC10028600DE0C6F80080FFF784FC0A
:1012D000074604E0FFF780FCC01B022823D82868DB
:1012E0008007F7D4207800072CD57948A169D9B1B7
:1012F000C0F80090FFF770FC074604E0FFF76CFCB5
:10130000C01B02280FD8686A8007F7D571484FF4D0
:10131000FA510068B0FBF1F0009000BF0098411E48
:101320000091FAD20EE080E0C0F80080FFF754FC94
:10133000074604E0FFF750FCC01B022875D8686A16
:101340008007F7D42078400760D5E8690027C000FF
:1013500008D4E86940F08050E861E869012700F0AE
:10136000805000905C480168C90513D40168834629
:1013700041F480710160FFF72FFC824606E000BF58
:10138000FFF72AFCA0EB0A0064284ED8DBF8000027
:10139000C005F5D5E06801280AD008B1052813D0AA
:1013A000286A20F001002862286A20F0040002E088
:1013B000286A40F001002862E06841F2883B98B159
:1013C000FFF70AFC82460BE0286A40F0040028621E
:1013D000EEE700BFFFF700FCA0EB0A0159455AD821
:1013E000286A8007F6D50CE0FFF7F6FB824605E099
:1013F000FFF7F2FBA0EB0A0159454CD8286A800799
:10140000F6D41FB1E86920F08050E861E06988B344
:101410006968C1F38101022944D00228C6F86080BE
:1014200004D0FFF7D9FB044638E034E0FFF7D4FBE3
:10143000074604E0FFF7D0FBC01B02282BD8286822
:101440008001F7D4206AB0F5803F05D16868A168B3
:1014500020F4003008436860D4E908010843696853
:1014600021F4741108436860C6F86090FFF7B4FB7C
:10147000044606E025E000BFFFF7AEFB001B022894
:1014800009D828688001F7D51BE000BFFFF7A4FB4F
:10149000001B022802D90320BDE8F88F28688001CC
:1014A000F4D40EE00128F7D06868226A00F4803195
:1014B000914204D1616A00F47010884201D0012089
:1014C000EAE70020E8E70000001002400000424286
:1014D00080044242240000200070004010B5401EED
:1014E000B0F1807F01D3012010BD4FF0E024606196
:1014F0000F21601700F01BFC0020A0610720206175
:10150000002010BDFEE701684A69D24352050FD49E
:101510006FF480624A61002140F8301F202242733C
:101520008173026942F00402026101730120704775
:1015300000207047F8B50446C06A1E460D4617469F
:10154000082807D0012805D010F5803F02D0206B75
:10155000122804D12068016841F4807101601346AB
:1015600000224FF001112046009600F05DF840B1D6
:1015700020680068C00502D54FF400702064032085
:10158000F8BD2069B0F5804F0ED00620216800EA32
:10159000D51040F0F000086133463A460B4920462A
:1015A00000F08AF878B902E005F0FE0000E0E8B249
:1015B00021680861054933463A46891F204600F0F4
:1015C0007BF80028DCD00120F8BD000008000100F5
:1015D00070B516460D4604461EE02046FFF793FF01
:1015E00008B1012070BD681C16D0FFF7F5FA801B0A
:1015F000A84200D885B920684069C04340070BD590
:10160000002044F8300F20216173A073216941F05C
:10161000200121612073E4E720684069C04340074E
:10162000DBD4002070BD00002DE9F0479846174636
:101630000D460446C1F30746DDF820902AE000BFBE
:10164000B8F1FF3F26D0FFF7C7FAA0EB09014145EB
:1016500002D8B8F1000F1DD12068012E16D0806984
:1016600025EA00000004000C12D00020B84211D17D
:10167000002044F8300F20216173A073216941F0EC
:101680002001216120730120BDE8F0874069E7E770
:101690000120EBE72068012E0AD0806925EA0000CE
:1016A0000004000C06D00020B842C9D00020EBE7AF
:1016B0004069F3E70120F7E72DE9F0479846164621
:1016C0000D4604464FF000094FF0200AC1F30747CA
:1016D00023E020684069C043400515D420680168B4
:1016E00041F40071016021686FF480604861C4F8C2
:1016F000309084F83DA084F83E90216C41F00401C4
:10170000216484F83C9021E0701C06D0FFF764FA55
:10171000A0EB0800B04203D816B1012F1FD021E082
:101720002068012F15D0806925EA00000004000C14
:1017300018D000BF44F8309F84F80DA084F80E90B4
:10174000216941F02001216184F80C900120BDE85D
:10175000F087406925EA00000004000CEAD1206807
:10176000406901E02068806925EA00000004000C5F
:10177000AFD1ECE770B516460D4604461EE0204694
:10178000FFF7C1FE08B1012070BD681C16D0FFF73D
:1017900023FA801BA84200D885B920684069C0435D
:1017A00000060BD5002044F8300F20216173A07390
:1017B000216941F0200121612073E4E7206840693C
:1017C000C0430006DBD4002070BD000030B51C48CB
:1017D0008BB01A49016009210024C0E901144FF4BB
:1017E0008021C0E9034189004161047601254576E5
:1017F0008476C57604774577FEF7C8FF08B1FEF713
:10180000C0FD0594049401940294089500940394F7
:10181000CDE9064569460A480994FEF7C7FD08B1B7
:10182000FEF7AFFD0648FFF7A1F808B1FEF7A9FDE6
:1018300002210348FEF7A7FD0BB030BD0064004055
:101840002C0000200D4808B5816941F0200181611C
:10185000816901F020010091816941F004018161F9
:10186000816901F004010091816941F00801816101
:10187000806900F00800009008BD000000100240E0
:101880000D4810B50B4901600C49416000214FF42F
:1018900080428160C0E9031241618161C1610162DE
:1018A000FFF7A0F9002803D0BDE81040FEF769BD9E
:1018B00010BD00000054004054000020801A0600B3
:1018C000FEE7FEE730B40021084C0A46002004EB96
:1018D000C1131A54401CC0B28028FAD3491CC9B2A3
:1018E0000829F3D330BC00F07DB9000029010020A5
:1018F0002DE9F04792460C46054600F011F9A5F196
:10190000010909F0FF00214600F00AF9A81EC0B243
:10191000214600F005F9E81EC0B2214600F000F9AA
:10192000281FC0B2214600F0FBF805F1010808F0BD
:10193000FF00214600F0F4F8A81CC0B2214600F0D8
:10194000EFF8E81CC0B2214600F0EAF8281DC0B24A
:10195000214600F0E5F8671EF9B2284600F0E0F8ED
:10196000A01EC1B2284600F0DBF8E01EC1B2284636
:1019700000F0D6F8201FC1B2284600F0D1F8661C4E
:10198000F1B2284600F0CCF8A01CC1B2284600F005
:10199000C7F8E01CC1B2284600F0C2F8201DC1B251
:1019A000284600F0BDF85046BAF1410F0DD044284A
:1019B0002DD0532818D0BAF1570F3CD1E61FF1B201
:1019C000284600F0ADF8083C14E0F1B2EE1FF0B28A
:1019D00000F0A6F8F9B2F0B200F0A2F8F0B2214699
:1019E00000F09EF8083D20E0E61DF1B2284600F028
:1019F00097F80834E1B2284600F092F8F1B209F005
:101A0000FF0000F08DF8F1B208F0FF000FE0F1B236
:101A1000EE1DF0B200F084F8F9B2F0B200F080F8F8
:101A2000F0B2214600F07CF80835E8B22146BDE866
:101A3000F04700F075B8BDE8F0872DE9F04390F865
:101A4000009090F801800B784878A3EB0905424696
:101A5000A0EB0804402D01DD803D03E015F1400FAF
:101A600000DA8035202C01DD403C03E014F1200F2A
:101A700000DA4034002D01DB284600E06842211ED8
:101A800000DA6142884203DD280004D5684202E0A2
:101A9000200000D56042070001D0002625E048461E
:101AA000BDE8F043114600F03BB805FB06F090FBA3
:101AB000F7F104FB06F090FBF7F2494402EB080053
:101AC000CA1701EB526222F07F028A1A00D58032D7
:101AD000C11700EB916121F03F01401A00D5403061
:101AE000C1B2D0B200F01CF8761CBE42DDDDBDE80C
:101AF000F083000070B506465FF0000406EB440575
:101B000016F81400697800F00BF8082C03D2A91C11
:101B10002846FFF792FF641CE4B2092CEED370BD97
:101B200010B580280CD240290AD2CB0801F0070258
:101B30000449012401EBC31194400B5C23430B5473
:101B400010BD00002901002010B56420FEF742FFFF
:101B5000AE2000F087F8D52000F084F8802000F057
:101B600081F8A82000F07EF83F2000F07BF8D32019
:101B700000F078F8002000F075F8402000F072F8CE
:101B8000A12000F06FF8C82000F06CF8DA2000F017
:101B900069F8122000F066F8812000F063F8CF2089
:101BA00000F060F8D92000F05DF8F12000F05AF85C
:101BB000DB2000F057F8302000F054F8A42000F0AB
:101BC00051F8A62000F04EF88D2000F04BF81420BC
:101BD00000F048F8AF2000F045F8BDE81040FFF7EE
:101BE00071BE00002DE9F84364250423114A7821D1
:101BF00011480095FFF7BAF8104F0024402607F16E
:101C000081080021204600F01BF83E7008EBC4114B
:101C10008022781CFEF7D8FA8123084A78210648EA
:101C20000095FFF7A3F8641CE4B2082CE9D3BDE8E3
:101C3000F88300002800002054000020A8000020A5
:101C400010B5B0300C46C0B200F00CF804F00F0034
:101C500000F008F8102000EB1410BDE8104000F070
:101C600001B800001CB5002101918DF80500642029
:101C70000090022301AA78210148FFF777F81CBDE4
:101C80005400002010B5ADF5806DFFF71BFE4FF43A
:101C90008064224606496846FEF7DBFA224669461A
:101CA0000448FEF791FAFFF79DFF0DF5806D10BD1A
:101CB000EC1D00082901002070477047FFF71AB992
:101CC00030B58FB028216846FEF7F5FA14210AA82E
:101CD000FEF7F1FA01210804CDE900100024029476
:101CE00002250491CDE907504FF4E01009906846B1
:101CF000FFF764FA08B172B6FEE70F20CDE90A05D6
:101D00004FF48060CDE90C4002210AA80E94FFF741
:101D100089F9002801D072B6FEE70FB030BD7047D8
:101D20000148FEF735BC00002C000020FEE7090743
:101D3000090E002804DB00F1E02080F80014704751
:101D400000F00F0000F1E02080F8141D7047000043
:101D5000FFF7D8F8FFF7B4FFFFF774FDFFF736FD84
:101D6000FFF78EFDFFF7F0FEFFF78CFF4FF4FA70E0
:101D7000FEF730FEFFF7A6FD104D2C1D2878002839
:101D8000FCD0FFF79FFD002004EB4001401C4A8877
:101D9000C0B20A800928F7D3084A521C5078A074B0
:101DA0009178E1741278FFF7A3FD0448001DFFF756
:101DB000A1FE00202870FFF715FFDFE700000020DC
:101DC000010202030405060708090A0B0C0D0E0F99
:101DD00010100000000000000000010203040607CC
:101DE00008090000000001020304000000000000D8
:101DF00000000000000000000000000000000000E3
:101E000000000000000000000000000000000000D2
:101E1000000000000000000000000080C0C0E0E7FB
:101E2000FFFFFFFFFFFFFFFFFFFFFFFCF8F8F8F8E1
:101E3000F8F8F0E0C0000000000000000000000022
:101E40000000000000000000000000000000000092
:101E50000000000000000000000000000000000082
:101E60000000000000000000000000000000000072
:101E70000000000000000000000000000000000062
:101E80000000000000000000000000000000000052
:101E90000000000000C0F0FCFFFFFFFFFFFFFFFF9E
:101EA000FFFFFFFFFFFFFFFFFFFFFFFFFFFFFFFF42
:101EB000FFFFFFFFFFFEF0E08000000000000000D9
:101EC0000000000000000000000000000000000012
:101ED0000000000000000000000000000000000002
:101EE00000000000000000000000000000000000F2
:101EF00000000000000000000000000000000000E2
:101F000000000000000000000000000000000000D1
:101F1000000000085CFFFFFFFFFFFFFFFFFFFFFF68
:101F2000FFFFFFFFFFFFFFFFFFFFFFFFFFFFFFFFC1
:101F3000FFFFFFFFFFFFFFFFFFE0000000000000CA
:101F40000000000000000000000000000000000091
:101F50000000000000000000000000000000000081
:101F60000000000000000000000000000000000071
:101F70000000000000000000000000000000000061
:101F80000000000000000000000000000000000051
:101F90000000000000000101333F3FFFFFFFFFFF93
:101FA000FFFFFFFFFFFFFFFFFFFFFFFFFFFFFFFF41
:101FB000FFFFFFFFFFFFFFFFFFFFE7040000000040
:101FC0000000000000000000000000000000000011
:101FD0000000000000000000000000000000000001
:101FE00000000000000000000000000000000000F1
:101FF00000000000000000000000000000000000E1
:10200000000000000000000000E0F0F8F8F8FFFF1A
:10201000FCFCFCFCFCF0E00000000000037FFFFF84
:10202000FFFFFFFFFFFFFFFFFFFFFFFFFFFFFFFFC0
:10203000FFFFFFFFFFFFFFFFFFFFFF80000000002B
:102040000000000000000000000000000000000090
:102050000000000000000000000000000000000080
:102060000000000000000000000000000000000070
:102070000000000000000000000000000000000060
:102080000000000000000000011F7FFFFFFFFFFFB6
:10209000FFFFFFFFFFFFFFF0E0C0C0800080EFFF09
:1020A000FFFFFFFFFFFFFFFFFFFFFFFFFFFFFFFF40
:1020B000FFFFFFFFFFFF7F1F3F6F1F1000000000AB
:1020C0000000000000000000000000000000000010
:1020D0000000000000000000000000000000000000
:1020E00000000000000000000000000000000000F0
:1020F00000000000000000000000000000000000E0
:10210000000000000000000000000000C1F3FFFF1D
:10211000FFFFFFFFFFFFFFFFFFFFFFFFFFFFFFFFCF
:10212000FFFFFFFFFFFFFFFFFFFFFFFFFFFFFFFFBF
:10213000FFFFFFFFEF0700000000000000000000AD
:10214000000000000000000000000000000000008F
:10215000000000000000000000000000000000007F
:10216000000000000000000000000000000000006F
:10217000000000000000000000000000000000005F
:10218000000000000000000000000080FFFFFFFFD3
:10219000FFFFFFFFFFFFFFFFFFFFFFFFFFFFFFFF4F
:1021A000FFFFFFFFFFFFFFFFFFFFFFFFFFFFFFFF3F
:1021B000FFFFFFFFFFF8F0F0F8783838380800002C
:1021C000000000000000000000000000000000000F
:1021D00000000000000000000000000000000000FF
:1021E0000000000000000000000000000C220008B9
:1021F000000000202C000000280100083822000800
:102200002C000020640B000044010008005740200F
:1022100002020410062408280A320C0A0E14101EAA
:10222000122814320100000010000000000000001D
:0822300000127A0000B000105A
:04000005080000ED02
:00000001FF
