:020000040800F2
:10000000D006002089010008DB1400081D1000083C
:10001000D91400088F020008CB1800080000000067
:10002000000000000000000000000000651800084B
:10003000910200080000000063180008671800081B
:10004000A3010008A3010008A3010008A301000800
:10005000A3010008A3010008A3010008A3010008F0
:10006000A3010008A3010008A3010008A3010008E0
:10007000A3010008A3010008A3010008A3010008D0
:10008000A3010008A3010008A3010008A3010008C0
:10009000A3010008A3010008A3010008A3010008B0
:1000A000A3010008A3010008A3010008A3010008A0
:1000B000A3010008A3010008A3010008A301000890
:1000C000A3010008A3010008A3010008A301000880
:1000D000A3010008A3010008A3010008A301000870
:1000E000A3010008A3010008A301000800F002F822
:1000F00000F03AF80AA090E8000C82448344AAF188
:100100000107DA4501D100F02FF8AFF2090EBAE885
:100110000F0013F0010F18BFFB1A43F0010318473B
:10012000B81E0000D81E0000103A24BF78C878C15D
:10013000FAD8520724BF30C830C144BF04680C60ED
:10014000704700000023002400250026103A28BF35
:1001500078C1FBD8520728BF30C148BF0B60704739
:100160001FB51FBD10B510BD00F058F81146FFF7C0
:10017000F7FF01F0BBFB00F076F803B4FFF7F2FFE6
:1001800003BC00F07DF8000009488047094800479B
:10019000FEE7FEE7FEE7FEE7FEE7FEE7FEE7FEE737
:1001A000FEE7FEE704480549054A064B7047000094
:1001B000C9180008ED000008D0000020D00600207B
:1001C000D0020020D00200204FF0000200B51346FC
:1001D00094469646203922BFA0E80C50A0E80C5067
:1001E000B1F12001BFF4F7AF090728BFA0E80C5018
:1001F00048BF0CC05DF804EB890028BF40F8042B11
:1002000008BF704748BF20F8022B11F0804F18BF7D
:1002100000F8012B7047704770477047754600F033
:100220002BF8AE4605006946534620F00700854688
:1002300018B020B5FFF7B6FFBDE820404FF000062C
:100240004FF000074FF000084FF0000B21F00701BE
:10025000AC46ACE8C009ACE8C009ACE8C009ACE801
:10026000C0098D46704710B50446AFF300802046A4
:10027000BDE81040FFF781BF004870476C000020C8
:1002800001491820ABBEFEE7260002007047FEE7DA
:10029000704772B6FEE7000070B5044600F004F93E
:1002A0000546601C02D004480078044400F0FCF8C5
:1002B000401BA042FAD370BD080000202DE9F84F82
:1002C000DFF8B8910024A9F1040B23460F2709F1A8
:1002D000040AABF1040EC9E00125A5402A40AA4258
:1002E0007DD1674ED1F804C0ACEB0608B44532D0DE
:1002F00014DCBCF1030F3AD009DCBCF1000F2AD0AA
:10030000BCF1010F1CD0BCF1020F31D11DE0BCF1DA
:10031000110F17D0BCF1120F2AD119E0B8F5881FC0
:1003200019D006DCB8F5803F15D0B8F5801F1FD175
:1003300011E0B8F5001F0ED0B8F5041F18D10AE07F
:10034000CB6815E0CB681B1D12E0CB6808330FE0CB
:10035000CB680C330CE08B682BB1012B4FF00803FA
:1003600003D0456104E0042302E0056100E00023BE
:10037000FF2A01D8064601E000F104064FEA840591
:1003800001D9A5F12005D6F8008007FA05FC28EA76
:100390000C0803FA05F548EA0508C6F800804D6820
:1003A000ED0062D5374DAE6946F00106AE61AD692C
:1003B00024F0030605F001050095334D06EB050C0E
:1003C000DCF80850A607360F07FA06F825EA0805F4
:1003D000DFF8B880404503D14FF0000817E044E053
:1003E000DFF8AC80404502D14FF001080FE0DFF8A4
:1003F000A480404502D14FF0020808E0DFF8988061
:10040000404502D14FF0030801E04FF0040808FA1C
:1004100006F848EA0508CCF808804D68D9F800606D
:10042000ED024D4601D5164300E096432E604D681F
:10043000DAF80060AD02554601D5164300E0964358
:100440002E604D68DBF80060AD035D4601D51643B4
:1004500000E096432E604D68DEF80060ED037546BF
:1004600001D5164300E096432E60641C0D682A46B1
:10047000E5407FF431AFBDE8F88F0000080401408B
:10048000000011100010024000000140000801406F
:10049000000C014000100140001401400AB101614C
:1004A00070470904FBE700000148806870470000BE
:1004B0000800002070B5040025D094F83D00002508
:1004C00020B984F83C50204600F07EFA242084F8BD
:1004D0003D002068016821F0010101602068016889
:1004E00041F4004101602068016821F4004101608D
:1004F00000F0BAFB4D4A6168914201D84C4900E0D6
:100500004C49884201D2012070BD4B492368B0FBA1
:10051000F1F15E6826F03F060E435E606368934229
:1005200006D94FF4967359434FF47A73B1FBF3F144
:100530002368491C1E6A26F03F0631431962616830
:10054000914210D84900401EB0FBF1F2521CC2F398
:100550000B02042A01D2042022E0B0FBF1F0401C7F
:10056000C0F30B001CE0A268F2B301EBC10303EB84
:100570000116431EB3FBF6F35B1C43F480431B05DB
:1005800049D092B301EBC10202EB0111401EB0FB56
:10059000F1F0401CC0F30B0040F4804040F40040F8
:1005A0002168CA694CF6FF739A431043C861D4E9C5
:1005B000071001432068026822F0C0021143016065
:1005C000D4E9030101432068826848F2FF339A436B
:1005D00011438160D4E9050108432168CA6822F00B
:1005E000FF021043C86001E00EE016E020680168D9
:1005F00041F0010101602564202084F83D0025635D
:1006000084F83E50002070BD01EB4106431EB3FB51
:10061000F6F35B1CB3E70120C2E701EB4101401E8A
:10062000B0FBF1F0401CC0F30B00B7E7A08601005F
:1006300080841E0000093D0040420F002DE9FF4F5D
:1006400083B00025DDE910799A4693460446DDF82B
:1006500048800095FFF728FF064694F83D002028C3
:100660007CD11923012288492046009600F0ECFD38
:100670000028F5D194F83C0001286FD0012084F8BF
:100680003C0020680168C90703D1016841F00101FD
:1006900001602068016821F400610160222084F873
:1006A0003D00402084F83E0025646762A4F82A904B
:1006B000608D20857548E062CDE9008653465A4634
:1006C0002046049900F0C2FC00287CD1208DDFF880
:1006D000C091202768B1012814D002282068016841
:1006E0001ED041F4806101602068416980690090FA
:1006F000BCE02068416981690091016841F40071A2
:100700000160B3E02068016821F48061016072B685
:100710002068416981690091016841F400710AE033
:1007200041F40061016072B62068416981690091FD
:10073000016821F48061016062B697E0032865D802
:1007400001280CD0022843464FF0000249462046BB
:1007500000960BD000F078FDA8BB0CE091E032468B
:100760004146204600F016FE68BB72E000F06CFDCA
:1007700048BB72B633E02068016821F480610160F3
:1007800072B620680069616A0870606A401C606225
:10079000208D401E2085608D401E60853D4846F2BC
:1007A000A8110068B0FBF1F0C0EBC00000EB8000C6
:1007B0000090401E009007D020684069C043400769
:1007C0000DD50098F5E727E044F8305F6773A5730F
:1007D000206940F02000206162B625731CE020688B
:1007E000016841F40071016020680069616A087065
:1007F000606A401C6062218D491E2185618D491E01
:10080000618562B621680969017026E03246414679
:10081000204600F0BFFD18B1012007B0BDE8F08F01
:1008200020680069616A0870606A401C6062208DFF
:10083000401E81B22185608D401E6085206842691E
:10084000D243520712D4032903D1016821F48061F5
:10085000016020680069616A0870606A401C60621B
:10086000208D401E2085608D401E6085208D0028D3
:100870007FF464AF84F83D7084F83E5084F83C50B7
:10088000CBE70220C9E70000020010000000FFFFD4
:1008900004000100140000202DE9FF4F83B09A46A8
:1008A000DDE9119793460446DDF84080FFF7FCFD33
:1008B000054694F83D0020287FD1192301224049A4
:1008C0002046009500F0C0FC002876D194F83C004A
:1008D000012872D0012084F83C0020680168C90713
:1008E00003D1016841F0010101602068016821F431
:1008F00000610160212084F83D00402084F83E0022
:1009000000262664C4F82480A4F82A90608D2085EF
:100910002C48E062CDE9007553465A4620460499BA
:1009200000F012FC70B930E02A463946204600F04B
:1009300069FD58B1206C042804D12068016841F495
:1009400000710160012007B0BDE8F08F606A216886
:1009500000780861606A401C6062218D491E89B27E
:100960002185628D521E628522685369DB435B07D5
:100970000BD469B100781061606A401C6062208D00
:10098000401E2085608D401E6085208D0028CBD1C3
:100990002A463946204600F02BFC0028CAD154F8DC
:1009A0003D0B016841F400710160202004F81E092C
:1009B000E67766770020C6E7FFE70220C3E700007E
:1009C000020010000000FFFF10B586B0002100916A
:1009D0000191029103910068104988421BD1104C8B
:1009E000A06940F00800A061A069694600F0080015
:1009F00004904FF440600090122001900320039077
:100A00000848FFF75BFCE06940F48000E061E069C2
:100A100000F48000049006B010BD000000580040B3
:100A200000100240000C0140024881680278114425
:100A30008160704708000020074810B5016841F048
:100A400010010160032000F067F80F2000F006F8A5
:100A500000F024F8002010BD0020024070B50D4DBC
:100A600004464FF47A712878B1FBF0F00A4909681E
:100A7000B1FBF0F000F0BEFA48B9102C07D200220A
:100A80002146501E00F028F800206C6070BD012047
:100A900070BD000008000020140000200C4808B5BC
:100AA000816941F001018161816901F001010091D9
:100AB000C16941F08051C161C06900F0805000906F
:100AC0000448416821F0E06141F00071416008BDD7
:100AD0000010024000000140F0B40E4B1B680C46B1
:100AE000C3F30223C3F10705042D00D90425191D02
:100AF000072901D2002300E0DB1E012606FA05F1DA
:100B0000491E214099409E40761E16403143F0BC5C
:100B100000F0DCBE0CED00E0064900F007020868BA
:100B20004FF6FF03184040EA0220034A10430860D2
:100B3000704700000CED00E00000FA052DE9F047D9
:100B40000F46050061D0434E306800F00700B84200
:100B500009D2306820F0070038433060306800F078
:100B60000700B84251D128683B4C810712D5400795
:100B700003D5606840F4E06060602878000703D522
:100B8000606840F4605060606068A96820F0F00020
:100B9000084360602878C00728D06868012810D012
:100BA0002168022810D0890700292EDA616821F017
:100BB000030101436160FFF777FC804641F2883909
:100BC0000DE021688903EFE78901EDE7FFF76CFC91
:100BD000A0EB0801494502D90320BDE8F087606811
:100BE000696800F00C00B0EB810FEFD1306800F0C5
:100BF0000700B8420BD9306820F007003843306056
:100C0000306800F00700B84201D00120E5E72878FD
:100C1000400705D56068E96820F4E060084360603B
:100C20002878000706D56068296920F4605040EAFA
:100C3000C100606000F028F86168084AC1F3031140
:100C4000515CC8400649086006480068FFF706FF87
:100C50000020C2E70020024000100240CE19000828
:100C6000140000200C000020044805490068496871
:100C7000044AC1F30221515CC840704714000020AF
:100C800000100240DE1900080E4A51680E4801F0BB
:100C90000C03042B11D0082B0FD10C48C1F3834354
:100CA000C903C05C0AD55168084AC1F34041921E8D
:100CB000515C054A5043B0FBF1F07047044948438A
:100CC000704700000010024000127A00BE190008B0
:100CD00000093D002DE9F84F040070D02078C04D88
:100CE000C00749D06868C0F38100012807D0686850
:100CF000C0F38100022809D16868C00306D52868BE
:100D0000800339D560680028E7D035E06068B0F529
:100D1000803F0BD010B1B0F5A02F11D0286820F47F
:100D200080302860286820F4802002E0286840F4A1
:100D300080302860606890B1FFF7B6FB06460AE095
:100D4000286840F480202860F0E700BFFFF7ACFB84
:100D5000801B642873D828688003F7D50CE0FFF760
:100D6000A3FB064605E000BFFFF79EFB801B64283F
:100D7000F0D828688003F7D420789A4E80074FF087
:100D800001094FF0000839D5686810F00C0F07D042
:100D90006868C0F38100022809D16868C00306D4DE
:100DA0002868800714D52069012808D110E020693F
:100DB000B0B1C6F80090FFF777FB074605E00AE1FF
:100DC000FFF772FBC01B0228C4D828688007F7D53C
:100DD0002868616920F0F80040EAC10028600DE051
:100DE000C6F80080FFF760FB074604E0FFF75CFBF6
:100DF000C01B022823D828688007F7D42078000772
:100E00002CD57948A169D9B1C0F80090FFF74CFB07
:100E1000074604E0FFF748FBC01B02280FD8686AAA
:100E20008007F7D571484FF4FA510068B0FBF1F034
:100E3000009000BF0098411E0091FAD20EE080E0C1
:100E4000C0F80080FFF730FB074604E0FFF72CFBFB
:100E5000C01B022875D8686A8007F7D4207840073D
:100E600060D5E8690027C00008D4E86940F08050E8
:100E7000E861E869012700F0805000905C48016853
:100E8000C90513D40168834641F480710160FFF7FE
:100E90000BFB824606E000BFFFF706FBA0EB0A0053
:100EA00064284ED8DBF80000C005F5D5E0680128BD
:100EB0000AD008B1052813D0286A20F00100286262
:100EC000286A20F0040002E0286A40F0010028624D
:100ED000E06841F2883B98B1FFF7E6FA82460BE002
:100EE000286A40F004002862EEE700BFFFF7DCFA52
:100EF000A0EB0A0159455AD8286A8007F6D50CE0BC
:100F0000FFF7D2FA824605E0FFF7CEFAA0EB0A011E
:100F100059454CD8286A8007F6D41FB1E86920F0FB
:100F20008050E861E06988B36968C1F381010229F2
:100F300044D00228C6F8608004D0FFF7B5FA044612
:100F400038E034E0FFF7B0FA074604E0FFF7ACFA08
:100F5000C01B02282BD828688001F7D4206AB0F57E
:100F6000803F05D16868A16820F4003008436860BC
:100F7000D4E908010843696821F4741108436860E2
:100F8000C6F86090FFF790FA044606E025E000BF3F
:100F9000FFF78AFA001B022809D828688001F7D5D4
:100FA0001BE000BFFFF780FA001B022802D90320D4
:100FB000BDE8F88F28688001F4D40EE00128F7D04E
:100FC0006868226A00F48031914204D1616A00F4B9
:100FD0007010884201D00120EAE70020E8E7000015
:100FE00000100240000042428004424214000020EF
:100FF0000070004010B5401EB0F1807F01D3012089
:1010000010BD4FF0E02460610F21601700F05EFC1E
:101010000020A06107202061002010BDFEE70168CC
:101020004A69D24352050FD46FF480624A610021AD
:1010300040F8301F202242738173026942F004029B
:101040000261017301207047002070472DE9F84FBD
:101050000446006889460B9D01689846174641F48E
:10106000806101602068016841F480710160009531
:101070004FF0011B0022594620460A9B00F0E4F87D
:101080004FF4007A40B120680068C00501D5C4F86B
:1010900040A00320BDE8F88F216809F0FE00086138
:1010A0002B46284920460A9A00F016F9F0BB206822
:1010B0004169806900902A4620460A9900F0A2F909
:1010C00040B1206C04283AD12068016841F40071D5
:1010D000016034E0FEB2B8F1010F09D02168380A8E
:1010E00008612A4620460A9900F08CF90028E8D1C8
:1010F000206806612A4620460A9900F083F90028F4
:10110000DFD12068016841F4807101600095002200
:10111000594620460A9B00F097F80028B3D1216871
:1011200009F0FF0040F00100086100E007E02B46F5
:10113000044920460A9A00F0CFF80028AAD00120DE
:10114000A8E70000020001002DE9F843044600680A
:101150000D46DDE9089701689846164641F480710E
:1011600001604B4600224FF001112046009700F02D
:101170006BF848B120680068C00502D54FF40070D4
:1011800020640320BDE8F883216805F0FE000861B3
:101190003B464A461549204600F09EF888B920682B
:1011A0004169806900903A464946204600F02AF994
:1011B00048B1206C042804D12068016841F4007112
:1011C00001600120DEE7F5B2B8F1010F09D0216816
:1011D000300A08613A464946204600F013F90028D3
:1011E000E7D1206805610020CCE700000200010083
:1011F00070B516460D4604461EE02046FFF70FFF69
:1012000008B1012070BD681C16D0FFF74DF9801B96
:10121000A84200D885B920684069C04340070BD573
:10122000002044F8300F20216173A073216941F040
:10123000200121612073E4E720684069C043400732
:10124000DBD4002070BD00002DE9F047984617461A
:101250000D460446C1F30746DDF820902AE000BFA2
:10126000B8F1FF3F26D0FFF71FF9A0EB0901414578
:1012700002D8B8F1000F1DD12068012E16D0806968
:1012800025EA00000004000C12D00020B84211D161
:10129000002044F8300F20216173A073216941F0D0
:1012A0002001216120730120BDE8F0874069E7E754
:1012B0000120EBE72068012E0AD0806925EA0000B2
:1012C0000004000C06D00020B842C9D00020EBE793
:1012D0004069F3E70120F7E72DE9F0479846164605
:1012E0000D4604464FF000094FF0200AC1F30747AE
:1012F00023E020684069C043400515D42068016898
:1013000041F40071016021686FF480604861C4F8A5
:10131000309084F83DA084F83E90216C41F00401A7
:10132000216484F83C9021E0701C06D0FFF7BCF8E3
:10133000A0EB0800B04203D816B1012F1FD021E066
:101340002068012F15D0806925EA00000004000CF8
:1013500018D000BF44F8309F84F80DA084F80E9098
:10136000216941F02001216184F80C900120BDE841
:10137000F087406925EA00000004000CEAD12068EB
:10138000406901E02068806925EA00000004000C43
:10139000AFD1ECE72DE9F041002590460E4604461A
:1013A000202728E04069C043C0060CD454F8301B05
:1013B0006FF01000486144F810596777A577206AEC
:1013C0002062257714E0FFF76FF8A0EB0800B04229
:1013D00000D886B920684069C04340060BD544F860
:1013E000305F6773A573206940F02000206125738A
:1013F0000120BDE8F08120684169C9434906D1D484
:101400000020F6E770B516460D4604461EE020465D
:10141000FFF705FE08B1012070BD681C16D0FFF76C
:1014200043F8801BA84200D885B920684069C043B2
:1014300000060BD5002044F8300F20216173A07303
:10144000216941F0200121612073E4E720684069AF
:10145000C0430006DBD4002070BD00000D4808B575
:10146000816941F020018161816901F020010091D1
:10147000816941F008018161816901F008010091F1
:10148000816941F004018161806900F004000090ED
:1014900008BD0000001002400D4810B50B49016066
:1014A0000C49416000214FF480428160C0E9031281
:1014B00041618161C1610162FEF7FCFF002803D038
:1014C000BDE81040FEF7E5BE10BD0000005800402A
:1014D00018000020A0860100FEE7FEE770B500249A
:1014E0000021204600F0F4F80025002000F0A8F9C3
:1014F0006D1CEDB2802DF8D3641CE4B2082CEFD340
:1015000070BD000010B586B00020029010488169BF
:1015100041F00801816180690E4C00F008000490E0
:101520004FF4407000901120019003200390694611
:101530002046FEF7C3FE012211022046FEF7AEFF51
:10154000012251022046FEF7A9FF06B010BD00009F
:1015500000100240000C01402DE9F047164E002417
:1015600007464FF080084FF40079B51528FA04F0CB
:10157000384201D0012200E0002249463046FEF701
:101580008DFF012229463046FEF788FF00222946BA
:101590003046FEF783FF641CE4B2082CE6D3012238
:1015A00029463046FEF77AFF29463046BDE8F04727
:1015B0000022FEF773BF0000000C014070B501224D
:1015C0000B4D540221462846FEF768FF0122160201
:1015D00031462846FEF762FF002221462846FEF7E4
:1015E0005DFF31462846BDE870400022FEF756BF39
:1015F000000C014070B50A4D4FF4007400222146E2
:101600002846FEF74BFF012211022846FEF746FF4F
:1016100021462846BDE870400122FEF73FBF00008A
:10162000000C014010B56420FEF736FEFFF76AFF9C
:10163000AE2000F0F4F8D52000F0F1F8802000F0A2
:10164000EEF8A82000F0EBF83F2000F0E8F8D320F7
:1016500000F0E5F8002000F0E2F8402000F0DFF8AC
:10166000A12000F0DCF8C82000F0D9F8DA2000F062
:10167000D6F8122000F0D3F8812000F0D0F8CF2067
:1016800000F0CDF8D92000F0CAF8F12000F0C7F83A
:10169000DB2000F0C4F8302000F0C1F8A42000F0F6
:1016A000BEF8A62000F0BBF88D2000F0B8F814209A
:1016B00000F0B5F8AF2000F0B2F8BDE81040FFF739
:1016C0000DBF0246012000E05043491EFCD2704786
:1016D00010B50C4640F0B00000F0A1F8102040EA30
:1016E000141000F09CF804F00F00BDE8104000F06A
:1016F00096B800002DE9F0410746CE004000083EB4
:10170000801E15464FF0FF38F1B2C0B2FFF7E0FF80
:101710001148002400EB05152819A0F5805090F819
:10172000000E00F08DF8641CE4B2082CF4D308EB32
:101730004700F1B2C0B2FFF7CBFF00242819A0F593
:10174000805090F8080E00F07BF8641CE4B2082C7E
:10175000F4D3BDE8F0810000E61900082DE9F0415E
:101760001D4617460E468046002415E0291B102012
:10177000491EFFF7A6FFB7FBF0F000F00F0206EBE3
:101780000400C1B20A2A404601D2303200E03732AA
:10179000FFF7B0FF641CE4B2AC42E7D3BDE8F081D0
:1017A0002DE9F0471E4614008846814604D42B22BA
:1017B000FFF7A0FF254603E02D22FFF79BFF6542C0
:1017C00000240A2714E0311B0A20491EFFF779FF85
:1017D000B5FBF0F0B0FBF7F107FB110208EB0400DA
:1017E000401CC1B248463032FFF784FF641CE4B2AB
:1017F000B442E8D3BDE8F0872DE9F04115460E4626
:101800000746002406E03019C1B23846FFF772FFE0
:10181000641CE4B22A5D002AF5D1BDE8F08110B560
:101820000446FFF7CBFE7820FFF796FE0020FFF777
:1018300093FE2046FFF790FEBDE81040FFF7DABEAA
:1018400010B50446FFF7BAFE7820FFF785FE40206A
:10185000FFF782FE2046FFF77FFEBDE81040FFF74E
:10186000C9BE70477047FFF7DFB830B58FB0282189
:101870006846FEF7A9FC14210AA8FEF7A5FC012181
:101880000804CDE900100024029402250491CDE95A
:1018900007504FF4E01009906846FFF71BFA08B1B3
:1018A00072B6FEE70F20CDE90A054FF48060CDE95E
:1018B0000C4002210AA80E94FFF740F9002801D03D
:1018C00072B6FEE70FB030BD7047FEE70907090E9C
:1018D000002804DB00F1E02080F80014704700F0DD
:1018E0000F0000F1E02080F8141D704786B0FFF76C
:1018F000A3F8FFF7BAFFFFF7B1FDFFF7CDFDFFF744
:1019000091FE00208DF80C000124642603A88DE8C8
:10191000510023466B22D0212348FEF7BDFF04A8C7
:101920008DE8510001237522D0211F48FEF786FE65
:10193000012105239DF810200846FFF70FFF012124
:101940001AA20846FFF758FF19A201210220FFF74B
:1019500053FF18A201210320FFF74EFF6420FEF77A
:101960009BFC154D0627CDE9005701233B22D021D2
:101970000D480296FEF762FE5FF0000405EB44019D
:1019800015F814004A78000200B20243641CE0B269
:1019900005230421FFF704FFE4B2032CEED36420F7
:1019A000FEF77AFCDFE700001800002061783A00BB
:1019B00061793A00617A3A000000002001020203D6
:1019C0000405060708090A0B0C0D0E0F1010000085
:1019D00000000000000001020304060708090000DF
:1019E00000000102030400000000000000000000ED
:1019F000000000000000000000F8000000000000EF
:101A000000333000000000100C06100C060000002F
:101A100000000000000040C07840C0784000043F53
:101A200004043F040400007088FC08300000001823
:101A300020FF211E0000F008F000E0180000002147
:101A40001C031E211E0000F00888700000001E21EB
:101A500023241927211010160E000000000000009A
:101A6000000000000000000000E018040200000078
:101A700000071820400000020418E00000000040A9
:101A8000201807000000404080F080404000020223
:101A9000010F01020200000000F00000000001013F
:101AA000011F01010100000000000000000080B0E3
:101AB00070000000000000000000000000000001B5
:101AC00001010101010100000000000000000030E0
:101AD000300000000000000000008060180400607A
:101AE00018060100000000E010080810E000000FD8
:101AF000102020100F00001010F80000000000203F
:101B0000203F202000000070080808887000003086
:101B1000282422213000003008888848300000182E
:101B2000202020110E000000C02010F80000000747
:101B30000424243F240000F80888880808000019BD
:101B4000212020110E0000E0108888180000000FEE
:101B5000112020110E0000380808C83808000000C5
:101B6000003F000000000070880808887000001C1A
:101B7000222121221C0000E010080810E0000000D3
:101B8000312222110F00000000C0C0000000000040
:101B90000030300000000000008000000000000065
:101BA000806000000000000080402010080000015C
:101BB000020408102000404040404040400004041F
:101BC00004040404040000081020408000000020E9
:101BD000100804020100007048080808F000000026
:101BE000003036010000C030C828E810E0000718B7
:101BF000272423140B000000C038E0000000203C24
:101C000023020227382008F8888888700000203FC7
:101C1000202020110E00C0300808080838000718DE
:101C200020202010080008F808080810E000203FD5
:101C3000202020100F0008F88888E8081000203FB6
:101C400020202320180008F88888E8081000203F8A
:101C5000200003000000C030080808380000071802
:101C60002020221E020008F808000008F808203F83
:101C7000210101213F20000808F808080000002089
:101C8000203F2020000000000808F8080800C0805D
:101C900080807F00000008F888C028180800203FD6
:101CA00020012638200008F8080000000000203F2E
:101CB00020202020300008F8F800F8F80800203F25
:101CC000003F003F200008F830C00008F808203F1F
:101CD000200007183F00E01008080810E0000F106F
:101CE000202020100F0008F808080808F000203F06
:101CF000210101010000E01008080810E0000F18A1
:101D0000242438504F0008F8888888887000203FC5
:101D10002000030C302000708808080838000038C4
:101D2000202121221C00180808F8080818000000CB
:101D3000203F2000000008F808000008F808001FF5
:101D4000202020201F000878880000C838080000E4
:101D500007380E010000F80800F80008F800033CFE
:101D60000700073C030008186880806818082030C6
:101D70002C03032C30200838C800C83808000000A5
:101D8000203F2000000010080808C838080020384C
:101D9000262120201800000000FE020202000000A0
:101DA000007F40404000000C30C0000000000000F8
:101DB00000010638C00000020202FE0000000040E0
:101DC00040407F0000000000040202020400000006
:101DD0000000000000000000000000000000808003
:101DE00080808080808000020204000000000000EB
:101DF00000000000000000008080808000000019CA
:101E0000242222223F2008F8008080000000003FAA
:101E1000112020110E000000008080800000000EC4
:101E2000112020201100000000808088F800000EA2
:101E3000112020103F200000808080800000001FC3
:101E4000222222221300008080F088888818002037
:101E5000203F202000000000808080808000006BF8
:101E600094949493600008F8008080800000203FE4
:101E7000210000203F2000809898000000000020F2
:101E8000203F20200000000000809898000000C043
:101E90008080807F000008F8000080808000203F64
:101EA00024022D302000000808F800000000002067
:101EB000203F202000008080808080808000203FA4
:101EC00020003F20003F8080008080800000203F75
:101ED000210000203F200000808080800000001F43
:101EE000202020201F00808000808000000080FFD4
:101EF000A12020110E000000008080808000000ED4
:101F0000112020A0FF808080800080808000202021
:101F10003F2120000100000080808080800000338D
:101F2000242424241900008080E080800000000028
:101F3000001F202000008080000000808000001F23
:101F4000202020103F2080808000008080800001C1
:101F50000E300806010080800080008080800F30F5
:101F60000C030C300F000080800080808000002077
:101F7000312E0E31200080808000008080808081A2
:101F80008E70180601000080808080808000002113
:101F9000302C2221300000000000807C0202000072
:101FA0000000003F404000000000FF000000000073
:101FB0000000FF0000000002027C800000000040E2
:101FC000403F00000000000601010202040400007E
:101FD0000000000000000000F81F000800000020C2
:101FE0001800000028010008102000081800002038
:101FF000B8060000440100080000000000000000D6
:1020000001000000100000000000000000127A0033
:04000005080000ED02
:00000001FF
