:020000040800F2
:10000000E8070020890100081F300008B31F00081E
:100010001D3000088F0200080D37000800000000A6
:100020000000000000000000000000009333000802
:100030009102000800000000913300089533000889
:10004000A3010008A3010008A3010008A301000800
:10005000A3010008A3010008A3010008A3010008F0
:10006000A3010008A3010008A3010008A3010008E0
:10007000A3010008A3010008A3010008A3010008D0
:10008000A3010008A3010008A3010008A3010008C0
:10009000A3010008A3010008A3010008A3010008B0
:1000A000A3010008F5330008A3010008A30100081C
:1000B00001340008A3010008A3010008B51F0008CF
:1000C000A3010008A3010008A3010008A301000880
:1000D000A301000801370008A3010008A3010008DC
:1000E000A3010008A3010008A301000800F002F822
:1000F00000F03AF80AA090E8000C82448344AAF188
:100100000107DA4501D100F02FF8AFF2090EBAE885
:100110000F0013F0010F18BFFB1A43F0010318473B
:100120005442000074420000103A24BF78C878C1DD
:10013000FAD8520724BF30C830C144BF04680C60ED
:10014000704700000023002400250026103A28BF35
:1001500078C1FBD8520728BF30C148BF0B60704739
:100160001FB51FBD10B510BD00F058F81146FFF7C0
:10017000F7FF03F0DDFA00F076F803B4FFF7F2FFC3
:1001800003BC00F07DF8000009488047094800479B
:10019000FEE7FEE7FEE7FEE7FEE7FEE7FEE7FEE737
:1001A000FEE7FEE704480549054A064B7047000094
:1001B000F1330008ED000008E8010020E807002006
:1001C000E8030020E80300204FF0000200B51346CA
:1001D00094469646203922BFA0E80C50A0E80C5067
:1001E000B1F12001BFF4F7AF090728BFA0E80C5018
:1001F00048BF0CC05DF804EB890028BF40F8042B11
:1002000008BF704748BF20F8022B11F0804F18BF7D
:1002100000F8012B7047704770477047754600F033
:100220002BF8AE4605006946534620F00700854688
:1002300018B020B5FFF7B6FFBDE820404FF000062C
:100240004FF000074FF000084FF0000B21F00701BE
:10025000AC46ACE8C009ACE8C009ACE8C009ACE801
:10026000C0098D46704710B50446AFF300802046A4
:10027000BDE81040FFF781BF0048704784010020AF
:1002800001491820ABBEFEE7260002007047FEE7DA
:100290007047000008B572B60025064C064E009562
:1002A0000098401C0090A042FAD32021304600F074
:1002B0005DFBF4E740420F00000C014090F8202065
:1002C000012A07D0022A05D0416A41F48021416207
:1002D00001207047006842690A434261002070476C
:1002E000F0B590F820500468A468012D05D0022DC7
:1002F00003D0416A41F480214DE014F0406F01D1F8
:10030000E50045D5C4F301640125A5401D608D6855
:100310004FF4C0739DB1CE6835434E6845EAC605BB
:10032000066803EB0417F5514FF4C275076805EB37
:1003300004150E697E51097D012905D009E00E885A
:10034000CD6845EA4655EBE701684E5946F480769C
:100350004E511179D2F805504FF4C67641EA052185
:10036000056806EB0416A9511178D2F801204FF464
:10037000C47541EA0221026805EB04155151006879
:1003800003EB0411425842F0010242500020F0BD3C
:10039000416A41F4001141620120F0BD10B590F8AE
:1003A00020300268012B07D0022B05D0416A41F4AE
:1003B00080214162012010BDD2F8000240F001000E
:1003C000C2F80002087D00F01F0301209840D2F817
:1003D0001C328343C2F81C32CB69B3B9D2F80C3259
:1003E0008343C2F80C328C894B6864F31F434C6919
:1003F00002EBC404C4F840320C890B6864F31F4359
:100400004C6902EBC404C4F84432CB69012B16D109
:10041000D2F80C320343C2F80C320C884B6864F3F8
:100420001F434C6902EBC404C4F840320C89CB680A
:1004300064F31F434C6902EBC404C4F844328B6973
:10044000002BD2F804320FD053EA0003C2F8043272
:100450000B69002BD2F8143208D00343C2F81432CF
:10046000096A012904D008E08343EFE78343F5E7F5
:10047000D2F81C120143C2F81C12D2F8000220F07C
:100480000100C2F80002002010BD70B5040003D0C6
:1004900094F8200010B104E0012070BD204600F067
:1004A00081F82068016841F00101016000F06CFAF8
:1004B0000546052604E000F067FA401B0A2811D81B
:1004C00020684068C007F6D02068016821F002016A
:1004D000016000F059FA05460BE000F055FA401BA8
:1004E0000A2806D9606A40F40030606284F820600F
:1004F000D2E7206840688007EFD4207E012820687A
:1005000001683DD021F080010160607E01282068F3
:10051000016838D021F040010160A07E01282068E8
:10052000016833D021F020010160E07E01282068BD
:1005300001682ED041F010010160207F0128206861
:10054000016829D021F008010160607F012820683E
:10055000016824D021F004010160D4E902010843BC
:10056000D4E90412114308436168491E0843216815
:10057000C86100206062012084F82000002070BD66
:1005800041F08001C0E741F04001C5E741F02001A2
:10059000CAE721F01001CFE741F00801D4E741F0AC
:1005A0000401D9E710B586B00021009101910291B4
:1005B00003910068184988422BD11848C16941F05D
:1005C0000071C161C16901F000710491816941F05C
:1005D000080181618069124C00F0080004904FF41A
:1005E000807000906946204600F0D0F860150090B9
:1005F00002200190032003906946204600F0C6F8CF
:100600000848416821F4C04141F0E06141F4804173
:10061000416006B010BD00000064004000100240C0
:10062000000C01400000014070B5044690F8200025
:10063000012804D0606A40F40020606218E00220C3
:1006400084F820002068016821F00101016000F0B9
:100650009BF905460EE000BF00F096F9401B0A2802
:1006600008D9606A40F400306062052084F82000F8
:10067000012070BD20684068C007EDD1606270BD88
:1006800010B590F821100022022905D004218163C1
:1006900080F82020012010BD01680B6823F00E03B4
:1006A0000B6001680B6823F001030B6090F8403089
:1006B000C46B012101FA03F3636080F8211080F814
:1006C0002020104610BD000010B590F82110002425
:1006D000022903D00421816301243DE001680A68F6
:1006E00022F00E020A6001680A6822F001020A6024
:1006F0001A4A0168914201D1012121E0174A1432BE
:10070000914201D110211BE0144A2832914201D1BB
:10071000891515E0114A3C32914201D189140FE04C
:100720000E4A5032914202D14FF4803108E00B4A18
:100730006432914202D14FF4801101E04FF0807198
:10074000064A083A5160012180F82110002180F802
:100750002010416B01B18847204610BD08000240BF
:1007600090F821007047000070B5044600F00CF9C5
:100770000546601C02D004480078044400F004F9E7
:10078000401BA042FAD370BD200000202DE9F84F95
:10079000DFF8B8910024A9F1040B23460F2709F1D3
:1007A000040AABF1040EC9E00125A5402A40AA4283
:1007B0007DD1674ED1F804C0ACEB0608B44532D009
:1007C00014DCBCF1030F3AD009DCBCF1000F2AD0D5
:1007D000BCF1010F1CD0BCF1020F31D11DE0BCF106
:1007E000110F17D0BCF1120F2AD119E0B8F5881FEC
:1007F00019D006DCB8F5803F15D0B8F5801F1FD1A1
:1008000011E0B8F5001F0ED0B8F5041F18D10AE0AA
:10081000CB6815E0CB681B1D12E0CB6808330FE0F6
:10082000CB680C330CE08B682BB1012B4FF0080325
:1008300003D0456104E0042302E0056100E00023E9
:10084000FF2A01D8064601E000F104064FEA8405BC
:1008500001D9A5F12005D6F8008007FA05FC28EAA1
:100860000C0803FA05F548EA0508C6F800804D684B
:10087000ED0062D5374DAE6946F00106AE61AD6957
:1008800024F0030605F001050095334D06EB050C39
:10089000DCF80850A607360F07FA06F825EA08051F
:1008A000DFF8B880404503D14FF0000817E044E07E
:1008B000DFF8AC80404502D14FF001080FE0DFF8CF
:1008C000A480404502D14FF0020808E0DFF898808C
:1008D000404502D14FF0030801E04FF0040808FA48
:1008E00006F848EA0508CCF808804D68D9F8006099
:1008F000ED024D4601D5164300E096432E604D684B
:10090000DAF80060AD02554601D5164300E0964383
:100910002E604D68DBF80060AD035D4601D51643DF
:1009200000E096432E604D68DEF80060ED037546EA
:1009300001D5164300E096432E60641C0D682A46DC
:10094000E5407FF431AFBDE8F88F000008040140B6
:10095000000011100010024000000140000801409A
:10096000000C01400010014000140140C26821EA5F
:1009700002030A4043EA0241016170470AB1016182
:1009800070470904FBE700000148806870470000D9
:1009900020000020704770472DE9F04702680021D1
:1009A0005368C66A90F83E4090F83D50102C12D023
:1009B000402C10D0046C002C7DD05469E443A60771
:1009C0007AD4DE43B60577D4036C03B19169BDE8F0
:1009D000F04701F0BBBF976951694FF42A0CC94336
:1009E0005FEAC1784FF02A4904D066452AD04E45C7
:1009F00028D010E0DE43B6050DD4C16A614501D1AF
:100A0000012103E0C16A494501D10821C162BDE865
:100A1000F04701F02FBE0E0716D4DE43B60513D4FF
:100A2000416CC9B21161416B09B1896A29B9816B05
:100A3000002907D0896A002904D00068416841F480
:100A400000614160BDE8F0878E0706D4DE43B6053D
:100A500003D4BDE8F04701F061BDFE43526876075C
:100A60004FEA02521DD4002AECDB0A0608D4DA430E
:100A7000520505D4490705D5BDE8F04701F0F2BCA1
:100A80004907DFD4D9438905DCD4212D05D0402C7A
:100A9000D8D1BDE8F04701F033BEBDE8F04701F022
:100AA0009FBC002ACEDB4A060BD4DA43520508D499
:100AB000490708D501E00DE00EE0BDE8F04701F080
:100AC00015BC4907BED4D9438905BBD4BDE8F0475E
:100AD00001F09FBB916970E7E10606D4D94389050F
:100AE00003D4BDE8F04701F055BF2821212D27D0C0
:100AF000292D25D0650655D4DD436D0552D46407F4
:100B000052D590F83D30448D002C9BD01269446A38
:100B10002270426A521C4262428D521E4285428DB0
:100B2000002A8FD12A2B8DD10268536823F4806369
:100B300053602222026380F83D1000F00DFB81E734
:100B4000250623D4DD436D0520D4640720D590F815
:100B50003D30448D002CF2D0446A24781461426AFE
:100B6000521C4262428D521E4285428D002AE6D1BD
:100B7000292BE4D10268536823F480635360212257
:100B8000026380F83D1000F0E8FA5BE76107D6D415
:100B9000D9438905D3D4418D0029D0D0416A097841
:100BA00011610AE06107CAD4D9438905C7D4418DD0
:100BB0000029C4D01169426A1170416A491C41621E
:100BC000418D491E41853DE77047000070B5040026
:100BD00025D094F83D00002520B984F83C502046EB
:100BE00000F084FA242084F83D002068016821F098
:100BF000010101602068016841F400410160206842
:100C0000016821F40041016000F0D6FB4D4A6168A3
:100C1000914201D84C4900E04C49884201D2012060
:100C200070BD4B492368B0FBF1F15E6826F03F06CA
:100C30000E435E606368934206D94FF4967359433E
:100C40004FF47A73B1FBF3F12368491C1E6A26F056
:100C50003F06314319626168914210D84900401E35
:100C6000B0FBF1F2521CC2F30B02042A01D20420A1
:100C700022E0B0FBF1F0401CC0F30B001CE0A268C6
:100C8000F2B301EBC10303EB0116431EB3FBF6F312
:100C90005B1C43F480431B0549D092B301EBC102B6
:100CA00002EB0111401EB0FBF1F0401CC0F30B0041
:100CB00040F4804040F400402168CA694CF6FF735C
:100CC0009A431043C861D4E90710014320680268C1
:100CD00022F0C00211430160D4E9030101432068FE
:100CE000826848F2FF339A4311438160D4E90501D9
:100CF00008432168CA6822F0FF021043C86001E07F
:100D00000EE016E02068016841F0010101602564F1
:100D1000202084F83D00256384F83E50002070BDFB
:100D200001EB4106431EB3FBF6F35B1CB3E7012066
:100D3000C2E701EB4101401EB0FBF1F0401CC0F3E3
:100D40000B00B7E7A086010080841E0000093D006B
:100D500040420F007047704770477047704700006F
:100D60002DE9FF4F83B00025DDE910799A469346BF
:100D70000446DDF848800095FFF706FE064694F825
:100D80003D0020287CD11923012288492046009665
:100D900001F0DAFE0028F5D194F83C0001286FD06C
:100DA000012084F83C0020680168C90703D101686C
:100DB00041F0010101602068016821F400610160D7
:100DC000222084F83D00402084F83E0025646762BC
:100DD000A4F82A90608D20857548E062CDE90086F0
:100DE00053465A462046049901F0DEFC00287CD187
:100DF000208DDFF8C091202768B1012814D0022887
:100E0000206801681ED041F480610160206841695A
:100E100080690090BCE020684169816900910168A7
:100E200041F400710160B3E02068016821F4806141
:100E3000016072B62068416981690091016841F4DE
:100E400000710AE041F40061016072B620684169F6
:100E500081690091016821F48061016062B697E0C8
:100E6000032865D801280CD0022843464FF0000221
:100E70004946204600960BD001F066FEA8BB0CE068
:100E800091E032464146204601F004FF68BB72E023
:100E900001F05AFE48BB72B633E02068016821F4C5
:100EA0008061016072B620680069616A0870606ADA
:100EB000401C6062208D401E2085608D401E608534
:100EC0003D4846F2A8110068B0FBF1F0C0EBC0004D
:100ED00000EB80000090401E009007D02068406921
:100EE000C04340070DD50098F5E727E044F8305F90
:100EF0006773A573206940F02000206162B62573F6
:100F00001CE02068016841F40071016020680069FC
:100F1000616A0870606A401C6062218D491E2185EB
:100F2000618D491E618562B621680969017026E0FC
:100F300032464146204601F0ADFE18B1012007B00F
:100F4000BDE8F08F20680069616A0870606A401C23
:100F50006062208D401E81B22185608D401E6085BB
:100F600020684269D243520712D4032903D1016891
:100F700021F48061016020680069616A0870606A1C
:100F8000401C6062208D401E2085608D401E608563
:100F9000208D00287FF464AF84F83D7084F83E50C3
:100FA00084F83C50CBE70220C9E7000002001000A3
:100FB0000000FFFF040001002C0000202DE9FF4F7E
:100FC00083B09A46DDE9119793460446DDF84080E8
:100FD000FFF7DAFC054694F83D0020287FD119235D
:100FE000012240492046009501F0AEFD002876D14F
:100FF00094F83C00012872D0012084F83C0020685D
:101000000168C90703D1016841F00101016020684E
:10101000016821F400610160212084F83D00402036
:1010200084F83E0000262664C4F82480A4F82A90A0
:10103000608D20852C48E062CDE9007553465A4604
:101040002046049901F02EFC70B930E02A4639465A
:10105000204601F057FE58B1206C042804D12068C6
:10106000016841F400710160012007B0BDE8F08F14
:10107000606A216800780861606A401C6062218DA6
:10108000491E89B22185628D521E6285226853698C
:10109000DB435B070BD469B100781061606A401CC8
:1010A0006062208D401E2085608D401E6085208DF1
:1010B0000028CBD12A463946204601F019FD0028E8
:1010C000CAD154F83D0B016841F400710160202041
:1010D00004F81E09E67766770020C6E7FFE70220DE
:1010E000C3E70000020010000000FFFF10B586B04B
:1010F00000210091019102910391006813498842F7
:1011000022D1134CA06940F00800A061A069694693
:1011100000F008000490C0200090122001900320ED
:1011200003900C48FFF732FBE06940F40010E061E7
:10113000E069002200F40010049002211F2000F05A
:1011400073F81F2000F062F806B010BD0054004094
:1011500000100240000C014070477047024881684F
:10116000027811448160704720000020074810B5C4
:10117000016841F010010160032000F075F80F20B4
:1011800000F006F800F024F8002010BD0020024016
:1011900070B50D4D04464FF47A712878B1FBF0F02C
:1011A0000A490968B1FBF0F000F0DCFA48B9102CEC
:1011B00007D200222146501E00F036F800206C6055
:1011C00070BD012070BD0000200000202C00002018
:1011D0000C4808B5816941F001018161816901F024
:1011E00001010091C16941F08051C161C06900F005
:1011F000805000900448416821F0E06141F00071A6
:10120000416008BD0010024000000140002809DBD9
:1012100000F01F02012191404009800000F1E02010
:10122000C0F8001170470000F0B40E4B1B680C466C
:10123000C3F30223C3F10705042D00D90425191DAA
:10124000072901D2002300E0DB1E012606FA05F182
:10125000491E214099409E40761E16403143F0BC05
:1012600002F055BA0CED00E0064900F007020868EC
:101270004FF6FF03184040EA0220034A104308607B
:10128000704700000CED00E00000FA052DE9F04782
:101290000F46050061D0434E306800F00700B842A9
:1012A00009D2306820F0070038433060306800F021
:1012B0000700B84251D128683B4C810712D540073E
:1012C00003D5606840F4E06060602878000703D5CB
:1012D000606840F4605060606068A96820F0F000C9
:1012E000084360602878C00728D06868012810D0BB
:1012F0002168022810D0890700292EDA616821F0C0
:10130000030101436160FFF73FFB804641F28839EA
:101310000DE021688903EFE78901EDE7FFF734FB72
:10132000A0EB0801494502D90320BDE8F0876068B9
:10133000696800F00C00B0EB810FEFD1306800F06D
:101340000700B8420BD9306820F0070038433060FE
:10135000306800F00700B84201D00120E5E72878A6
:10136000400705D56068E96820F4E06008436060E4
:101370002878000706D56068296920F4605040EAA3
:10138000C100606000F038F86168084AC1F30311D9
:10139000515CC8400649086006480068FFF7F8FE3F
:1013A0000020C2E700200240001002406C3D00080F
:1013B0002C000020240000200448054900684968EA
:1013C000044AC1F30221515CC84070472C00002040
:1013D000001002407C3D0008044805490068496847
:1013E000044AC1F3C221515CC84070472C00002060
:1013F000001002407C3D00080E4A51680E4801F082
:101400000C03042B11D0082B0FD10C48C1F38343DC
:10141000C903C05C0AD55168084AC1F34041921E15
:10142000515C054A5043B0FBF1F070470449484312
:10143000704700000010024000127A005C3D000876
:1014400000093D002DE9F84F040070D02078C04D10
:10145000C00749D06868C0F38100012807D06868D8
:10146000C0F38100022809D16868C00306D5286846
:10147000800339D560680028E7D035E06068B0F5B2
:10148000803F0BD010B1B0F5A02F11D0286820F408
:1014900080302860286820F4802002E0286840F42A
:1014A00080302860606890B1FFF76EFA06460AE067
:1014B000286840F480202860F0E700BFFFF764FA56
:1014C000801B642873D828688003F7D50CE0FFF7E9
:1014D0005BFA064605E000BFFFF756FA801B64285A
:1014E000F0D828688003F7D420789A4E80074FF010
:1014F00001094FF0000839D5686810F00C0F07D0CB
:101500006868C0F38100022809D16868C00306D466
:101510002868800714D52069012808D110E02069C7
:10152000B0B1C6F80090FFF72FFA074605E00AE1D0
:10153000FFF72AFAC01B0228C4D828688007F7D50D
:101540002868616920F0F80040EAC10028600DE0D9
:10155000C6F80080FFF718FA074604E0FFF714FA10
:10156000C01B022823D828688007F7D420780007FA
:101570002CD57948A169D9B1C0F80090FFF704FAD9
:10158000074604E0FFF700FAC01B02280FD8686A7C
:101590008007F7D571484FF4FA510068B0FBF1F0BD
:1015A000009000BF0098411E0091FAD20EE080E04A
:1015B000C0F80080FFF7E8F9074604E0FFF7E4F918
:1015C000C01B022875D8686A8007F7D420784007C6
:1015D00060D5E8690027C00008D4E86940F0805071
:1015E000E861E869012700F0805000905C480168DC
:1015F000C90513D40168834641F480710160FFF787
:10160000C3F9824606E000BFFFF7BEF9A0EB0A006F
:1016100064284ED8DBF80000C005F5D5E068012845
:101620000AD008B1052813D0286A20F001002862EA
:10163000286A20F0040002E0286A40F001002862D5
:10164000E06841F2883B98B1FFF79EF982460BE0D3
:10165000286A40F004002862EEE700BFFFF794F923
:10166000A0EB0A0159455AD8286A8007F6D50CE044
:10167000FFF78AF9824605E0FFF786F9A0EB0A0139
:1016800059454CD8286A8007F6D41FB1E86920F084
:101690008050E861E06988B36968C1F3810102297B
:1016A00044D00228C6F8608004D0FFF76DF90446E4
:1016B00038E034E0FFF768F9074604E0FFF764F923
:1016C000C01B02282BD828688001F7D4206AB0F507
:1016D000803F05D16868A16820F400300843686045
:1016E000D4E908010843696821F47411084368606B
:1016F000C6F86090FFF748F9044606E025E000BF11
:10170000FFF742F9001B022809D828688001F7D5A5
:101710001BE000BFFFF738F9001B022802D90320A5
:10172000BDE8F88F28688001F4D40EE00128F7D0D6
:101730006868226A00F48031914204D1616A00F441
:101740007010884201D00120EAE70020E8E700009D
:101750000010024000004242800442422C0000205F
:101760000070004010B5401EB0F1807F01D3012011
:1017700010BD4FF0E02460610F21601701F0C7FF3A
:101780000020A06107202061002010BD7047704735
:1017900070B590F83C20012A26D0012480F83C4006
:1017A000022280F83D2003685A689D6822F0700686
:1017B0000A6832435A600D4B02689A4208D0B2F16F
:1017C000804F05D00A4B9A4202D00A4B9A4204D16C
:1017D000496825F080031943916080F83D4000215D
:1017E00080F83C10084670BD022070BD002C0140FE
:1017F000000400400008004010B5040003D094F835
:101800003D0010B107E0012010BD002084F83C002D
:10181000204600F01FF8022084F83D00211D2068BA
:1018200001F0F4FD012084F8460084F83E0084F8BD
:101830003F0084F8400084F8410084F8420084F8B6
:10184000430084F8440084F8450084F83D000020FB
:1018500010BD000008B5154A0168154891420ED127
:10186000816941F4006181618069002200F40060B7
:10187000009011461920FFF7D7FC192010E0B1F1B4
:10188000804F11D1C16941F00101C161C0690022DD
:1018900000F00100009001211C20FFF7C5FC1C2076
:1018A000BDE80840FFF7B2BC08BD0000002C0140B5
:1018B0000010024090F83D10012901D0012070472E
:1018C000022180F83D100168CA6842F00102CA6036
:1018D00000680B49884208D0B0F1804F05D0094913
:1018E000884202D00849884204D1816801F007018A
:1018F000062903D0016841F0010101600020704712
:10190000002C0140000400400008004070B504466F
:1019100090F83C000025012817D0012684F83C608F
:10192000022084F83D002068826822F0770222F4C9
:101930007F4282600868502838D00DDC20284FD0C4
:1019400005DC90B3102811D14AE0022070BD302888
:1019500046D040280AD13BE060282FD070280DD017
:10196000B0F5805F03D0B0F5005F12D0012584F898
:101970003D60002084F83C00284670BDCB68D1E96A
:101980000121206801F07EFD2068816841F0770127
:1019900009E0CB68D1E90121206801F073FD2068DE
:1019A000816841F480418160E1E719E0CA684968D3
:1019B000206801F079FD5021206806E0CA68496876
:1019C000206801F082FD6021206801F065FDCEE70E
:1019D000CA684968206801F067FD40212068F4E783
:1019E000226801461046F0E770472DE9F0410446B1
:1019F0000068C66805694FF00007A90713D5B1074D
:101A000011D5F91E016101202077206880698007C7
:101A1000204602D0FFF7E8FF04E000F07EF8204601
:101A200000F07CF82777680716D5700714D5216871
:101A30006FF004000861022020772068806910F4AC
:101A4000407F204602D0FFF7CFFF04E000F065F8AA
:101A5000204600F063F82777280715D5300713D5FF
:101A600021686FF008000861042020772068C069B1
:101A70008007204602D0FFF7B7FF04E000F04DF8E2
:101A8000204600F04BF82777E80616D5F00614D567
:101A900021686FF010000861082020772068C06975
:101AA00010F4407F204602D0FFF79EFF04E000F0D4
:101AB00034F8204600F032F82777E80708D0F0071E
:101AC00006D021686FF001000861204600F028F878
:101AD000280608D5300606D521686FF08000086119
:101AE0002046FFF753FE680608D5700606D5216824
:101AF0006FF040000861204600F090F8A8060AD573
:101B0000B00608D521686FF0200008612046BDE8C6
:101B1000F041FFF73CBEBDE8F08170477047000020
:101B2000FEB5064600683749374C884222D1A51CCD
:101B3000642002210095CDE9011001234322D02128
:101B40003248FFF70DF928786978000200B20143A6
:101B5000A180084601F0A8FF2D4901F0C7FE2061D1
:101B60002C49206901F0B8FFE16801F05DFEE060FA
:101B7000E06860613068B0F1804F41D12078002585
:101B800025497F26412820D0442828D03F265328A5
:101B90000BD0572834D1606901F09EFF01F068FF37
:101BA000E169084408E0E6610AE0606901F094FF39
:101BB00001F05EFFE169081AE061E0693F28F2DCAC
:101BC000E06900281ADAE56118E0606901F084FF35
:101BD00001F04EFFA169081A08E0A6610AE06069F9
:101BE00001F07AFF01F044FFA1690844A061A069F7
:101BF0007F28F2DCA069002800DAA561012060706E
:101C0000FEBD0000002C0140000000205800002014
:101C1000000003430AD7233CCDCCCC3D704770472E
:101C200070470000F8B5016804460868CA684B6947
:101C300010F00F0F4FF0000559D003F0010602F429
:101C40009077374365D0C10705D0D10503D5616CC6
:101C500041F001016164410705D5D90703D0616CEA
:101C600041F002016164810705D5D90703D0616C99
:101C700041F004016164010707D502F020013143FE
:101C800003D0616C41F008016164616C00293AD0B5
:101C9000800604D5900602D5204601F057FC206846
:101CA0004069616CC0F38010090700D460B320461E
:101CB00001F025FC20684069400621D520681430D9
:101CC00050E8001F21F0400140E80012002AF5D141
:101CD000E06BA8B16D494163E06BFEF7F5FC0028AD
:101CE00011D0E06B416B01B0BDE8F04008478306BE
:101CF0000FD593060DD52046BDE8F84001F026BC6F
:101D00002046FFF78DFFF8BD2046FFF789FF656489
:101D1000F8BD266B2023012E7CD1C6067AD5D606C7
:101D200078D508684868009048694FF00206400678
:101D300040D5E16B086840680004000CE8D0A28D33
:101D40008242E5D9E085886920282DD020680C30B2
:101D500050E8001F21F4807140E80012002AF5D1FC
:101D60002068143050E8001F21F0010140E8001203
:101D7000002AF5D12068143050E8001F21F04001FE
:101D800040E80012002AF5D184F84230256320682B
:101D90000C3050E8001F21F0100140E80012002A2A
:101DA000F5D1E06BFEF76CFC6663A08DE18D401A07
:101DB00081B22AE0A08DE18D401A81B2E08D002829
:101DC000A6D00029A4D022680C3252E8000F20F4DB
:101DD000907042E80007002FF5D12068143050E8D9
:101DE000002F22F0010240E80027002FF5D184F8EF
:101DF0004230256320680C3050E8002F22F010029A
:101E000040E80023002BF5D166632046FFF707FF6B
:101E1000F8BDFFE705062BD5150629D594F8410036
:101E20002128F5D1A068B0F5805F01D12069B0B15B
:101E3000206A411C2162216800784860E08C401EC5
:101E40000004000CE084E3D12068C16821F0800127
:101E5000C1602068C16841F04001C160D8E7206AD4
:101E60000088C0F308004860206A801C2062E5E713
:101E70004006CDD55006CBD5CA68204622F0400298
:101E8000CA6084F8413000F093F8C1E7EF340008ED
:101E900070B5040004D094F84100002510B106E0AC
:101EA000012070BD84F84050204600F023F8242023
:101EB00084F841002068C16821F40051C1602046C7
:101EC00001F0A6FB2068016921F4904101612068BE
:101ED000416921F02A0141612068C16841F4005143
:101EE000C1606564202084F8410084F84200656385
:101EF000002070BD30B585B0002400940194029498
:101F000003940068184988422CD11848816941F42B
:101F100080418161816901F480410491816941F0CE
:101F2000040181618069124D00F0040004904FF4B7
:101F3000007000900220019003200390694628461B
:101F4000FEF724FC2815CDE90004694628460294D2
:101F5000FEF71CFC002203212520FFF765F9252050
:101F6000FFF754F905B030BD0038014000100240C1
:101F70000008014090F84230202B01D00220704729
:101F800021B11AB10023036301F09EBB0120704709
:101F900000680449884204D1012203490348FFF73D
:101FA000E9BF704700380140000000203C010020DC
:101FB0007047FEE70148FEF7EFBC00005800002024
:101FC00038B5406A002190F83D202B4B46F2A8140A
:101FD0001B68B3FBF4F3C3EBC30303EB830300936E
:101FE0003BB15B1E009303681B689B0505D5009BF6
:101FF000F6E7036C43F020030364436B03B199627B
:10200000836B03B1996203681C6824F480641C60CC
:102010004185436B03B15963836B03B15963036813
:102020001C6824F001041C6090F83D402023602CC3
:102030000BD0282434EA02020FD080F83D3080F81B
:102040003E1000BFFEF7C0FD38BD80F83D3080F87F
:102050003E100164FEF79EFC38BD0268136843F031
:10206000010313600268136843F480631360016323
:1020700080F83D40E6E700002C0000200068416940
:10208000C943090601D400210161704770B50446B7
:1020900090F83D0094F83E10102901D0402906D157
:1020A000222804D121680A6822F400620A602821EB
:1020B00031EA00024FF000054FF0200626D02168DB
:1020C0004968090505D4602803D084F83D6084F888
:1020D0003E50256320684168090537D5416821F4E1
:1020E00000614160606B90F821203C49012A11D0C9
:1020F0004163606BFEF7E8FA38B32068016821F0AD
:102100000101016084F83D60606B1CE0256384F888
:102110003D10DFE7A06B4163A06BFEF7D5FAA0B1DD
:1021200020684169C943490605D40069616A08709D
:10213000606A401C60622068016821F00101016052
:1021400084F83D60A06B416B884710E094F83D1027
:10215000602910D04169C943490605D40069616A04
:102160000870606A401C60622046FEF72DFD206CFE
:10217000C1071CD115E084F83D6025644169C9435D
:10218000490605D40069616A0870606A401C606293
:102190002068016821F0010101602046FEF7FAFB8A
:1021A000E5E7810703D4410701D4000704D520687F
:1021B000416821F4E061416094F83D00216C4907D9
:1021C0000BD5282809D10648E062256384F83D60D4
:1021D00084F83E502046FEF7BDFD70BDC11F0008CB
:1021E0000000FFFF01684A69D24352050FD46FF423
:1021F00080624A61002140F8301F202242738173BF
:10220000026942F00402026101730120704700205C
:10221000704710B5C26A438D0168042B06D0438D08
:10222000032B08D0438D022B1DD012E04A6822F404
:1022300080624A600CE04B6823F480634B60042AA0
:1022400006D0022A04D001680A6822F480620A607B
:1022500001680969426A1170416A491C4162418DF5
:10226000491E418510BD012A34D0102A32D0042ADB
:1022700034D0022A32D00B6843F400730B6001683B
:102280000969436A1970416A491C4162438D5B1EAA
:10229000438503681B690B70416A491C4162418D8B
:1022A000491E418501684B6823F440734B6020212F
:1022B00080F83D1090F83E300021402B80F83E1011
:1022C00010D0082A02D0202A00D012210163FEF784
:1022D00042FD10BD0B6823F48063CFE70B6843F425
:1022E0008063CBE70163FEF738FD10BD38B590F889
:1022F0003D10222910D1C36A418D03290DD90168EF
:102300000969426A1170416A491C4162418D491E46
:102310004185418D032906D038BDC26A022A02D008
:10232000012906D029B10068416821F4806141602B
:1023300038BD2A4A46F2A81400211268B2FBF4F212
:1023400002EB8202009202682024009D6D1E00951F
:1023500026D01568AD05F8D4156825F4806515609C
:102360000268556825F4E065556002681269456A9F
:102370002A70426A521C4262428D521E428580F887
:102380003D4090F83E2080F83E10402A21D0082B96
:1023900002D0202B00D012210163FEF7DCFC38BDF7
:1023A000036C43F020030364536823F4E063536039
:1023B00002681269436A1A70426A521C4262428D74
:1023C000521E428580F83D4080F83E10FEF7FCFB2F
:1023D00038BD0163FEF7C1FC38BD00002C000020B1
:1023E00010B5C26A90F83D1021290BD1418D51B131
:1023F000416A026809781161416A491C4162418D54
:10240000491E418510BD20230021082A13D0202A0F
:1024100011D012F5803F0ED00268546824F4E064B5
:1024200054601122026380F83E1080F83D3000BFF6
:10243000FEF792FC10BD0268546824F4E064546016
:102440000268146844F400741460016380F83D303D
:1024500090F83E2080F83E10402AE9D1FEF77EFC3D
:1024600010BD000010B590F83D1090F83E30C26AE3
:10247000048DB4B1212903D0402B11D122290FD1D1
:10248000418DE1B390F83E10402942D0416A026884
:1024900009781161416A491C4162418D491E41859B
:1024A00010BD2129E8D120230021082A13D0202A99
:1024B00011D012F5803F0ED00268546824F4E06415
:1024C00054601122026380F83E1080F83D3000BF56
:1024D000FEF742FC10BD0268546824F4E0645460C6
:1024E0000268146844F400741460016380F83D309D
:1024F00090F83E2080F83E10402AE9D100E002E04A
:10250000FEF72CFC10BD0068416821F48061416039
:1025100010BDBDE8104000F0F3B8000078B590F8A9
:102520003E50C26A046B90F83D6000230168222E81
:1025300073D1066D0EB9402D6FD0056D1DB90569BB
:10254000B5F5404F1BD0458D95B3468D484D012EB6
:1025500020D0448D022C4DD00C6844F480640C6073
:1025600001684C68240579D5AA4273D0012A71D03C
:10257000082A6FD0102A6DD0202A6BD06EE04A69ED
:102580008A6900920A6842F480720A60016D491CEF
:10259000016578BDAA4214D10A6822F480620A60FB
:1025A00001684A68120504D50A6822F4806217E0BF
:1025B000FFE74A698A6900920A6842F400720A6079
:1025C00050E0082A10D0202A0ED0122C0AD0042A5B
:1025D00003D0022A01D0102AE6D10A6842F48062B0
:1025E0000A603BE0012ADFD00A6822F480620A60B8
:1025F0000168DEE7042A11D0022A0FD0102A0DD07C
:102600000C6844F400640C6001684C698C690094A7
:102610000C6824F480640C6008E025E00C6844F445
:1026200080640C6001684C698969009101684C689C
:10263000240517D5AA4207D0012A05D0082A03D0BD
:10264000102A01D0202A0DD14A6842F480524A60F3
:1026500008E0FFE74A6842F480524A6001684A692C
:1026600089690091036578BD48698869009078BDE3
:102670000000FFFF90F83E10402910D00169B1F52D
:10268000804F19D0016DA9B3016D012910D1416CA2
:102690005FF0F10201F4407142EAD11106E0016DF0
:1026A0000029416C05D0C9B241F001010068016107
:1026B000704701F0FE01F9E790F83D102129416CC7
:1026C00009D0C9B241F0010102681161416B29B121
:1026D000896A49B902E001F0FE01F5E7816B002942
:1026E000E6D0896A0029E3D00068416841F40061BE
:1026F00041607047FFE7416CF02201F44071CBE785
:1027000010B590F83D10026D4AB1026D012A14D047
:10271000026D022A16D0BDE81040FFF7AFBCC16CB5
:102720000129816C02D0C1F3072108E00268C9B217
:102730001161016D891C016510BD816CC9B202680F
:10274000116123E022291CD0428D0AB1212920D019
:10275000428D002AF0D12129EED101684A6822F485
:10276000E0624A6001680A6842F400720A6000216F
:102770000163202280F83D2080F83E10FEF7EEFA3B
:1027800010BD01680A6842F480720A60016D491C3C
:10279000D1E7416A026809781161416A491C4162C6
:1027A000418D491E418510BD2DE9F84F0446006852
:1027B00089460B9D01689846174641F48061016087
:1027C0002068016841F48071016000954FF0011BA1
:1027D0000022594620460A9B00F0B6F94FF4007AD1
:1027E00040B120680068C00501D5C4F840A00320AE
:1027F000BDE8F88F216809F0FE0008612B462849E2
:1028000020460A9A00F0E8F9F0BB20684169806927
:1028100000902A4620460A9900F074FA40B1206CD4
:1028200004283AD12068016841F40071016034E065
:10283000FEB2B8F1010F09D02168380A08612A46B2
:1028400020460A9900F05EFA0028E8D12068066167
:102850002A4620460A9900F055FA0028DFD1206860
:10286000016841F4807101600095002259462046BC
:102870000A9B00F069F90028B3D1216809F0FF0034
:1028800040F00100086100E007E02B4604492046C3
:102890000A9A00F0A1F90028AAD00120A8E70000B8
:1028A000020001002DE9F843044600680D46DDE909
:1028B000089701689846164641F4807101604B46BE
:1028C00000224FF001112046009700F03DF948B179
:1028D00020680068C00502D54FF400702064032012
:1028E000BDE8F883216805F0FE0008613B464A46D2
:1028F0001549204600F070F988B92068416980695F
:1029000000903A464946204600F0FCF948B1206C58
:10291000042804D12068016841F40071016001209D
:10292000DEE7F5B2B8F1010F09D02168300A08617D
:102930003A464946204600F0E5F90028E7D12068EC
:1029400005610020CCE700000200010038B50C460C
:1029500090F83D2000212825954302680B4605D0BC
:1029600051699169009180F83C3038BD556825F473
:1029700080655560E243540700D50121120601D558
:10298000828900E0028B80F83C3092B2FEF703F8B7
:1029900038BD0000F8B590F83D6004460068416815
:1029A00021F4E061416020680025416900910168DF
:1029B00041F0010101602068016821F4806101603B
:1029C00020684168090520D5474F222E48D02A2E7D
:1029D00046D0616B096849686185618D19B1216CC8
:1029E00041F004012164416821F400614160606BA1
:1029F000FDF7B6FE012808D0606B4763606BFDF7FA
:102A000063FE10B1606B416B8847608D08B320682E
:102A10004169C943490708D40069616A0870606A5E
:102A2000401C6062608D401E608520684169C9431A
:102A3000490608D40069616A0870606A401C6062D7
:102A4000608D401E6085608D18B1206C40F00400E0
:102A50002064206C00B32046BDE8F840FFF716BBA9
:102A6000A16B096849686185618D19B1216C41F0DC
:102A700004012164416821F400614160A06BFDF70D
:102A80006FFE0128C1D0A06B4763A06BFDF71CFE51
:102A90000028BAD0A06BB6E72A2E06D125632820DD
:102AA00084F83D002046FEF757FB94F83D102020A7
:102AB00028290DD0216B222901D0222E07D1256390
:102AC00084F83D0084F83E502046FEF745FBF8BDF3
:102AD0000649E162256384F83D0084F83E502046B3
:102AE000FEF738F9F8BD0000C11F00080000FFFF25
:102AF00070B516460D4604461EE02046FFF772FBF1
:102B000008B1012070BD681C16D0FDF73DFF801B89
:102B1000A84200D885B920684069C04340070BD55A
:102B2000002044F8300F20216173A073216941F027
:102B3000200121612073E4E720684069C043400719
:102B4000DBD4002070BD00002DE9F0479846174601
:102B50000D460446C1F30746DDF820902AE000BF89
:102B6000B8F1FF3F26D0FDF70FFFA0EB090141456B
:102B700002D8B8F1000F1DD12068012E16D080694F
:102B800025EA00000004000C12D00020B84211D148
:102B9000002044F8300F20216173A073216941F0B7
:102BA0002001216120730120BDE8F0874069E7E73B
:102BB0000120EBE72068012E0AD0806925EA000099
:102BC0000004000C06D00020B842C9D00020EBE77A
:102BD0004069F3E70120F7E72DE9F04798461646EC
:102BE0000D4604464FF000094FF0200AC1F3074795
:102BF00023E020684069C043400515D4206801687F
:102C000041F40071016021686FF480604861C4F88C
:102C1000309084F83DA084F83E90216C41F004018E
:102C2000216484F83C9021E0701C06D0FDF7ACFED6
:102C3000A0EB0800B04203D816B1012F1FD021E04D
:102C40002068012F15D0806925EA00000004000CDF
:102C500018D000BF44F8309F84F80DA084F80E907F
:102C6000216941F02001216184F80C900120BDE828
:102C7000F087406925EA00000004000CEAD12068D2
:102C8000406901E02068806925EA00000004000C2A
:102C9000AFD1ECE72DE9F041002590460E46044601
:102CA000202728E04069C043C0060CD454F8301BEC
:102CB0006FF01000486144F810596777A577206AD3
:102CC0002062257714E0FDF75FFEA0EB0800B0421C
:102CD00000D886B920684069C04340060BD544F847
:102CE000305F6773A573206940F020002061257371
:102CF0000120BDE8F08120684169C9434906D1D46B
:102D00000020F6E770B516460D4604461EE0204644
:102D1000FFF768FA08B1012070BD681C16D0FDF7F6
:102D200033FE801BA84200D885B920684069C043A3
:102D300000060BD5002044F8300F20216173A073EA
:102D4000216941F0200121612073E4E72068406996
:102D5000C0430006DBD4002070BD00002DE9FF4118
:102D6000012403AE8DF80C406425009623466B22A7
:102D7000D0211C48CDE90145FEF720F93220FDF7AE
:102D8000F3FC00278DF80C70009601236C22D021F3
:102D90001448CDE90145FEF711F909208DF80C0022
:102DA000009601231922D0210E48CDE90145FEF7F6
:102DB00005F906208DF80C00009601231A22D02177
:102DC0000848CDE90145FEF7F9F88DF80C7000963A
:102DD00001231B22D0210348CDE90145FEF7EEF87F
:102DE000BDE8FF815800002030B51C488BB01A495F
:102DF000016009210024C0E901144FF48021C0E9D9
:102E00000341890041610476012545768476C576C3
:102E100004774577FDF739FB08B1FDF73BFA0594D8
:102E2000049401940294089500940394CDE9064516
:102E300069460A480994FDF7B1FA08B1FDF72AFA84
:102E40000648FDF7F1FB08B1FDF724FA022103481B
:102E5000FDF734FA0BB030BD0064004030000020B4
:102E600030B585B00024184800940194029403946E
:102E7000816941F020018161816901F020010491A3
:102E8000816941F004018161816901F004010491CB
:102E9000816941F00801816180690C4D00F00800F2
:102EA0000490002220212846FDF768FD2020009094
:102EB0000120CDE901040320039069462846FDF76F
:102EC00065FC05B030BD000000100240000C014060
:102ED0000D4810B50B4901600C49416000214FF4C9
:102EE00080428160C0E9031241618161C161016278
:102EF000FDF76CFE002803D0BDE81040FDF7CAB90D
:102F000010BD00000054004058000020801A060048
:102F100010B586B0002418480094019402940394DC
:102F2000049414490594016041F61F41C0E901145D
:102F30006321C0E903148021C0E90541FEF75CFC70
:102F400008B1FDF7A7F94FF48050009069460A4890
:102F5000FEF7DCFC08B1FDF79DF9049404A90648CE
:102F60000594FEF715FC002801D0FDF793F906B093
:102F700010BD0000002C0140AC00002010B586B050
:102F800000241748009401940294039404944FF091
:102F900080410594016041F61F41C0E9011440F2EF
:102FA000E731C0E903148461FEF726FC08B1FDF7A0
:102FB00071F94FF48050009069460948FEF7A6FC6D
:102FC00008B1FDF767F9049404A905480594FEF7D4
:102FD000DFFB002801D0FDF75DF906B010BD000051
:102FE000F40000200C4810B50A4901604FF4E131AB
:102FF0004160002181600C22C160C0E9041281613E
:10300000C161FEF745FF002803D0BDE81040FDF781
:1030100041B910BD003801403C010020FEE7FEE749
:1030200070B500240021204600F0EAF800250020B9
:1030300000F09DF96D1CEDB2802DF8D3641CE4B254
:10304000082CEFD370BD000010B586B000200290B0
:103050000F48816941F00801816180690D4C00F0E1
:103060000800049018200090112001900320039084
:1030700069462046FDF78AFB012208212046FDF71C
:103080007DFC012210212046FDF778FC06B010BD22
:1030900000100240000C01402DE9F0410024144DC5
:1030A0000746802626FA04F0384201D0012200E0CB
:1030B000002210212846FDF761FC01220821284644
:1030C000FDF75CFC002208212846FDF757FC641C34
:1030D000E4B2082CE6D3012208212846FDF74EFC75
:1030E0002846BDE8F04100220821FDF747BC00005A
:1030F000000C014010B50B4C012210212046FDF7B9
:103100003DFC012208212046FDF738FC0022102159
:103110002046FDF733FC20460022BDE81040082180
:10312000FDF72CBC000C014010B5094C0022102109
:103130002046FDF723FC012208212046FDF71EFC56
:1031400020460122BDE810401021FDF717BC000009
:10315000000C014010B56420FDF706FBFFF774FF7B
:10316000AE2000F0F3F8D52000F0F0F8802000F059
:10317000EDF8A82000F0EAF83F2000F0E7F8D320AF
:1031800000F0E4F8002000F0E1F8402000F0DEF864
:10319000A12000F0DBF8C82000F0D8F8DA2000F019
:1031A000D5F8122000F0D2F8812000F0CFF8CF201F
:1031B00000F0CCF8D92000F0C9F8F12000F0C6F8F2
:1031C000DB2000F0C3F8302000F0C0F8A42000F0AD
:1031D000BDF8A62000F0BAF88D2000F0B7F8142052
:1031E00000F0B4F8AF2000F0B1F8BDE81040FFF7F0
:1031F00017BF0246012000E05043491EFCD2704731
:1032000010B50C4640F0B00000F0A0F8102040EAE5
:10321000141000F09BF804F00F00BDE8104000F01F
:1032200095B800002DE9F0410746CE004000083E69
:10323000801E15464FF0FF38F1B2C0B2FFF7E0FF35
:103240001148002400EB05152819A0F5805090F8CE
:10325000000E00F08CF8641CE4B2082CF4D308EBE8
:103260004700F1B2C0B2FFF7CBFF00242819A0F548
:10327000805090F8080E00F07AF8641CE4B2082C34
:10328000F4D3BDE8F0810000843D00082DE9F0474B
:1032900000241D461646884681460A2713E0291B4E
:1032A0000A20491EFFF7A5FFB6FBF0F0B0FBF7F1CF
:1032B00007FB110208EB0400C1B248463032FFF7A9
:1032C000B1FF641CE4B2AC42E9D3BDE8F0872DE95C
:1032D000F0471E4614008846814604D42B22FFF78F
:1032E000A1FF254603E02D22FFF79CFF6542002445
:1032F0000A2714E0311B0A20491EFFF77AFFB5FBAD
:10330000F0F0B0FBF7F107FB110208EB0400401CE2
:10331000C1B248463032FFF785FF641CE4B2B442C4
:10332000E8D3BDE8F0872DE9F04115460E46074683
:10333000002406E03019C1B23846FFF773FF641C61
:10334000E4B22A5D002AF5D1BDE8F08110B504464B
:10335000FFF7D0FE7820FFF79FFE0020FFF79CFECE
:103360002046FFF799FEBDE81040FFF7DDBE10B51F
:103370000446FFF7BFFE7820FFF78EFE4020FFF7E0
:103380008BFE2046FFF788FEBDE81040FFF7CCBE5D
:1033900070477047FDF7E2BE30B58FB02821684610
:1033A000FCF712FF14210AA8FCF70EFF0121080404
:1033B000CDE900100024029402250491CDE90750C4
:1033C0004FF4E01009906846FEF73CF860B90F2012
:1033D000CDE90A056802CDE90C4002210AA80E9445
:1033E000FDF754FF002801D0FCF754FF0FB030BDAB
:1033F000704700000148FEF7F8BA0000AC0000205A
:103400000148FEF7F2BA0000F4000020F0B50268AF
:10341000194B1A4C1A4D4FF08047984205D0B842CC
:1034200003D0A04201D0A84203D122F070064A681E
:103430003243984205D0B84203D0A04201D0A842FE
:1034400003D122F44074CA6822434C6922F08002FE
:10345000224302608A68C2620A688262984201D18D
:1034600009690163012141610169C90703D001694B
:1034700021F001010161F0BD002C01400004004079
:103480000008004010B5846842EA032224F47F4417
:103490000A432243826010BD826822F070020A4310
:1034A00042F007018160704710B5036A046A24F096
:1034B00001040462846924F0F00444EA021423F055
:1034C0000A020A438461026210BD10B5036A046AED
:1034D00024F010040462846923F0A00324F47044EF
:1034E00044EA023243EA01118261016210BD10B563
:1034F000406A0021C185C184FEF792FB10BD0168BE
:103500000C3151E8002F22F4907241E80023002B87
:10351000F5D10168143151E8002F22F0010241E891
:103520000023002BF5D1016B012909D101680C3171
:1035300051E8002F22F0100241E80023002BF5D1C2
:10354000202180F8421000210163704708B590F8EF
:103550004210222901D0022008BD82684FF4805316
:103560009A4201D1016921B1816A9A421BD04AB1C4
:103570000AE00268816A5268C2F308020A80816A1E
:10358000891C08E0026972B10268526802F07F0289
:103590000A70816A491C8162C18D491E0904090CA7
:1035A000C18503D01BE002685268F1E70168CA6870
:1035B00022F02002CA600168CA6822F48072CA60E0
:1035C00001684A6922F001024A61202180F8421014
:1035D00000214163026B012A03D0FEF7D9FC0020D1
:1035E00008BD016301680C3151E8002F22F0100280
:1035F00041E80023002BF5D101680A68D20602D504
:103600000A6849680091818DFEF709FBE7E7000031
:1036100070B5044600680169E26821F44051114325
:1036200001612169A0680843616908432168CA688B
:1036300041F20C639A430243CA6020684169A2695F
:1036400021F44071114341611E492068884202D132
:10365000FDF7C2FE01E0FDF7AFFE00EBC00101EB9C
:103660000012606864218000B2FBF0F3B3FBF1F359
:103670006FF018067343B2FBF0F5B2FBF0F605EB02
:103680008305322303EB0515B5FBF1F5B6FBF1F627
:1036900005F0F00505EB0615B2FBF0F6B2FBF0F015
:1036A000B0FBF1F06FF01802504306EB800003EB23
:1036B0000010B0FBF1F0216800F00F002844886092
:1036C00070BD00000038014081628285C285002102
:1036D0004164222180F84210016921B10168CA6861
:1036E00042F48072CA6001684A6942F001024A618C
:1036F0000068C16841F02001C160002070470000EF
:103700000148FEF78FBA00003C010020FEE70907E0
:10371000090E002804DB00F1E02080F80014704757
:1037200000F00F0000F1E02080F8141D7047000049
:1037300088B0FDF71BFDFFF70DFDFFF72DFEFFF72E
:103740008FFBFFF751FBFFF74DFCFFF7E1FBFFF7A6
:10375000BFFBFFF713FCFFF701FB012228492948B3
:10376000FEF708FC2848FEF7A5F82848FEF7A2F85F
:10377000234C20780028FCD0012125A20846FFF721
:10378000D2FD606900F074F902460523072101208B
:10379000FFF79DFD20A201210220FFF7C4FD227842
:1037A00009210220FFF73EFDA26905230121032024
:1037B000FFF76CFDE269052301210420FFF766FD98
:1037C00060780128D5D118216846FCF7FDFC01205E
:1037D00000900025032004900948039502958DF878
:1037E0001450801D21780170A1694170E1698170D8
:1037F000024606AB69460B48FCF772FD6570B8E7F8
:10380000000000203C010020AC000020F40000205B
:10381000616E676C653A0000756172745F72783A28
:10382000000000003000002090EA010F48BF81F046
:10383000004100F12482421A3CBF801A89184FEAE5
:10384000D0524FF07F4C1CEA410FA2EBD15318BF6E
:103850009CEA026F00F03B804FF0004C4CEA0020E5
:103860004CEA012121FA03FC10EB0C0C1ED202F1F0
:10387000FF325FEA1C2040EBC25038BF70471CF09B
:103880007F0F4FEA400C18BFBCF17F4F38BF704725
:10389000C3F12003994008BF20F00100BCF17F4F25
:1038A00038BF7047A0F1C04000F0DDB94FEA3C00DE
:1038B000000A40EBC25028BF1CF0FF0F4FEA400C3B
:1038C000E6D018BFBCF17F4F38BF7047EAE79CEAEB
:1038D000026F05D010EA5C0F08BF00F0004070478F
:1038E00010B500F07AF900BF64FBBE3E4FF47F0CC8
:1038F0001CEAD0121EBF1CEAD11392EA0C0F93EA05
:103900000C0F00F0858090EA010F48BF42F48072EE
:1039100040F4000C41F400002CF07F4120F07F4087
:1039200000B58142A2EB03020FF2081CACEB504E33
:10393000C0F100009EF800E04FEA4E0E00FB0EFCC6
:1039400038BF49004FEA2C1C02F5FA020CFB0EF3BB
:103950004FEACE1E4FEA112C4FEAC1210EEB635EF7
:1039600042EB22420EFB0CFC4FEA1C5300FB0311FE
:103970004FEA112C4FEA01310EFB0CFC4FEADC4CF4
:1039800000FB0C11C14228BF09184CEB03335DF852
:1039900004EB10EB410143EBC250B2F57C0F38BF92
:1039A000704729D512F0F00F1CBF00F1C04000F0A5
:1039B00000407047008182838485868788898B8C4C
:1039C0008D8E8F919293959697999A9C9D9FA0A288
:1039D000A3A5A7A8AAACAEB0B2B3B5B7B9BCBEC0D8
:1039E000C2C5C7C9CCCED1D4D7D9DCDFE2E6E9EC79
:1039F000F0F3F7FAFE0000004FEA400C0CF1807C77
:103A0000BCF17E4F28BF7047B0F1C04000F02BB929
:103A100090EA010F0CEAD11348BF42F4807262456C
:103A200038BF634507D213F47F0F16D080EA010038
:103A300000F00040704710B500F0CFF8097EFC3E62
:103A400000F005B880EA010000F00040704780EA0D
:103A5000010000F0004000F006B912F47F0F04BF2F
:103A60000248704780EA010000F0FDB80000C07F06
:103A700041000B0ED3F19E0208D950F400034FEA27
:103A8000032323FA02F048BF4042704710B500F00C
:103A9000A4F800BF49922480002070476FF00042D4
:103AA00082EA20007047000010F0004148BF404209
:103AB000B0FA80F310FA03F2C3F19D030BD051EA80
:103AC000C35101EB1220530638BF704700F10100CB
:103AD00008BF20F0010070474FF47F0C1CEAD012A1
:103AE0001EBF1CEAD11392EA0C0F93EA0C0F00F0F0
:103AF000478090EA010F48BF42F480724FF0004CBB
:103B00004CEA00204CEA012102EB0302A0FB011366
:103B1000A2F50002002918BF43F001035B0028BF93
:103B20004FEA330342EB22425FEA132C4CEBC250C4
:103B30002EBFBCEB436FB2F57C0F70474FEA036CAE
:103B4000BCF1004F08BF20F00100B2F57C0F38BF78
:103B500070470BD582F0FF0212F5803FC8BF704757
:103B600000F1C040D8BF00F00040704700F5000CE5
:103B70005FEA4C0C48BF7047B0F1C04000F073B82A
:103B800090EA010F0CEAD11348BF42F480726245FB
:103B900038BF634504D280EA010000F0004070475E
:103BA00010B500F01AF800BF8900013E00F007B818
:103BB00000F009B85FEA410C5FEA1C6C08D080EAAB
:103BC000010000F050B85FEA400C5FEA1C6CF6D1CF
:103BD0004FF00040A0F5800070470EF1020E2EF06D
:103BE000030E5EF8044B244204D44FEA4102B2F1C2
:103BF0007F4F11D84FEA4003B3F17F4F0CD80ED15D
:103C00004FEAD07CB2F17F4F0CEB4C0C0CF1020C64
:103C100008BF4CEBD17C04E04FF0080C01E04FEA08
:103C2000D17C0CEB4C0324FA03F404F00704B4F148
:103C3000040C06D20EEB840CBDE810404CF0010CD5
:103C40006047DFE80CF0070802024FF00040A0F5E3
:103C5000800010BD0846420018BFD2F1807288BFB4
:103C600000F0004010BDFF2141EAD050C005704770
:103C700090EA010F48BF81F000413FF5DCAD421AE8
:103C800004D882F00042A0EB020011444FEAD05267
:103C90004FF07F4C1CEA410FA2EBD15318BF9CEAB6
:103CA000026F4AD04FF0004C4CEA00204CEA012150
:103CB00021FA03FCB0EB0C0C0FD412F0FE0F36D03F
:103CC0005FEA4C001DD5001240EBC25038BF704770
:103CD0001CF03F0F18BF70470BE0A2F101025FEA32
:103CE0001C2040EBC25038BF70471CF07F0F18BF3C
:103CF0007047C3F12003994014BF401E20F001001B
:103D0000704780084FEA122308BF7047B0FA80FC62
:103D1000A2EB0C02CCF1280C60FA0CF093EA122F03
:103D200004BF00EBC25070474FEAC3707047130ADC
:103D30005FEADC1008BF7047F6E79CEA026F04D028
:103D400010EA5C0F08BF0020704710B5FFF745FF71
:103D500040DFF63E81F00040704701020203040597
:103D6000060708090A0B0C0D0E0F101000000000CA
:103D7000000000000102030406070809000000001B
:103D80000102030400000000000000000000000029
:103D900000000000000000F80000000000000033F8
:103DA0003000000000100C06100C0600000000009F
:103DB0000000000040C07840C0784000043F040488
:103DC0003F040400007088FC08300000001820FF49
:103DD000211E0000F008F000E018000000211C0384
:103DE0001E211E0000F00888700000001E21232400
:103DF0001927211010160E0000000000000000001E
:103E000000000000000000E01804020000000007AD
:103E10001820400000020418E000000000402018B4
:103E200007000000404080F0804040000202010F87
:103E300001020200000000F0000000000101011F6B
:103E400001010100000000000000000080B07000CF
:103E5000000000000000000000000000000101015F
:103E600001010101000000000000000000303000EE
:103E700000000000000000008060180400601806C8
:103E80000100000000E010080810E000000F102002
:103E900020100F00001010F8000000000020203F4C
:103EA00020200000007008080888700000302824D6
:103EB0002221300000300888884830000018202077
:103EC00020110E000000C02010F80000000704249C
:103ED000243F240000F808888808080000192120E1
:103EE00020110E0000E0108888180000000F11203B
:103EF00020110E0000380808C83808000000003FF4
:103F0000000000000070880808887000001C222152
:103F100021221C0000E010080810E00000003122FF
:103F200022110F00000000C0C0000000000000309F
:103F300030000000000000800000000000008060F1
:103F40000000000000008040201008000001020472
:103F50000810200040404040404040000404040459
:103F60000404040000081020408000000020100815
:103F700004020100007048080808F000000000304A
:103F800036010000C030C828E810E00007182724D8
:103F900023140B000000C038E0000000203C230286
:103FA0000227382008F8888888700000203F2020E9
:103FB00020110E00C030080808083800071820201B
:103FC0002010080008F808080810E000203F202012
:103FD00020100F0008F88888E8081000203F2020F3
:103FE0002320180008F88888E8081000203F2000E7
:103FF00003000000C030080808380000071820201F
:10400000221E020008F808000008F808203F2101DD
:1040100001213F20000808F8080800000020203F88
:104020002020000000000808F8080800C0808080F8
:104030007F00000008F888C028180800203F2001F1
:104040002638200008F8080000000000203F20204B
:104050002020300008F8F800F8F80800203F003F62
:10406000003F200008F830C00008F808203F20007A
:1040700007183F00E01008080810E0000F1020208B
:1040800020100F0008F808080808F000203F210160
:1040900001010000E01008080810E0000F182424B7
:1040A00038504F0008F8888888887000203F20002A
:1040B000030C3020007088080808380000382021E0
:1040C00021221C00180808F8080818000000203FEA
:1040D0002000000008F808000008F808001F202051
:1040E00020201F000878880000C838080000073822
:1040F0000E010000F80800F80008F800033C070073
:10410000073C0300081868808068180820302C03DA
:10411000032C30200838C800C83808000000203FB1
:104120002000000010080808C838080020382621A0
:1041300020201800000000FE020202000000007FA4
:1041400040404000000C30C00000000000000001B2
:104150000638C00000020202FE000000004040409D
:104160007F000000000004020202040000000000C2
:10417000000000000000000000000000808080803F
:104180008080808000020204000000000000000027
:1041900000000000000080808080000000192422C0
:1041A00022223F2008F8008080000000003F1120FC
:1041B00020110E000000008080800000000E112001
:1041C00020201100000000808088F800000E1120DF
:1041D00020103F200000808080800000001F2222ED
:1041E00022221300008080F0888888180020203F59
:1041F000202000000000808080808000006B94946C
:104200009493600008F8008080800000203F210027
:1042100000203F2000809898000000000020203FF0
:1042200020200000000000809898000000C08080DE
:10423000807F000008F8000080808000203F24027A
:104240002D302000000808F8000000000020203F6A
:10425000202000008080808080808000203F20001F
:104260003F20003F8080008080800000203F2100B0
:1042700000203F200000808080800000001F202060
:1042800020201F00808000808000000080FFA1208F
:1042900020110E000000008080808000000E1120A0
:1042A00020A0FF80808080008080800020203F212F
:1042B00020000100000080808080800000332424E2
:1042C00024241900008080E0808000000000001F8E
:1042D000202000008080000000808000001F20203F
:1042E00020103F20808080000080808000010E3000
:1042F0000806010080800080008080800F300C0361
:104300000C300F0000808000808080000020312E63
:104310000E312000808080000080808080818E703F
:104320001806010000808080808080000021302CF1
:104330002221300000000000807C0202000000000A
:10434000003F404000000000FF00000000000000AF
:10435000FF0000000002027C800000000040403F9F
:104360000000000000060101020204040000000039
:10437000000000009443000800000020300000000E
:1043800028010008C443000830000020B8070000DE
:1043900044010008000000000000000000000000D0
:1043A00000000000000000000000000040000000CD
:1043B00020000000010000001000000000000000CC
:0443C00000127A006D
:04000005080000ED02
:00000001FF
