:020000040800F2
:10000000B8060020890100083F14000825130008E5
:100010003D1400087F030008C91700080000000015
:100020000000000000000000000000005D17000854
:1000300081030008000000005B1700085F1700083C
:10004000A3010008A3010008A3010008A301000800
:10005000A3010008A3010008A3010008A3010008F0
:10006000A3010008A3010008A3010008A3010008E0
:10007000A3010008A3010008A3010008A3010008D0
:10008000A3010008A3010008A3010008A3010008C0
:10009000BD170008A3010008A3010008830300089E
:1000A000A3010008A3010008A3010008A3010008A0
:1000B000A3010008A3010008A3010008A301000890
:1000C000A3010008A3010008A3010008A301000880
:1000D000A3010008A3010008A3010008A301000870
:1000E000A3010008A3010008A301000800F002F822
:1000F00000F03AF80AA090E8000C82448344AAF188
:100100000107DA4501D100F02FF8AFF2090EBAE885
:100110000F0013F0010F18BFFB1A43F0010318473B
:10012000F01D0000101E0000103A24BF78C878C1EE
:10013000FAD8520724BF30C830C144BF04680C60ED
:10014000704700000023002400250026103A28BF35
:1001500078C1FBD8520728BF30C148BF0B60704739
:100160001FB51FBD10B510BD00F0CFF81146FFF749
:10017000F7FF01F03BFB00F0EDF803B4FFF7F2FFEF
:1001800003BC00F0F5F80000094880470948004723
:10019000FEE7FEE7FEE7FEE7FEE7FEE7FEE7FEE737
:1001A000FEE7FEE704480549054A064B7047000094
:1001B000BB170008ED000008B8000020B8060020BA
:1001C000B8020020B8020020032A40F2308010F06C
:1001D000030C00F0158011F8013BBCF1020F6244E2
:1001E00098BF11F801CB00F8013B38BF11F8013B73
:1001F000A2F1040298BF00F801CB38BF00F8013B20
:1002000011F0030300F04F80083AC0F0088051F865
:10021000043B083A51F804CBA0E80810F5E7121D9A
:100220005CBF51F8043B40F8043BAFF30080D207B9
:1002300024BF11F8013B11F801CB48BF11F8012B85
:1002400024BF00F8013B00F801CB48BF00F8012BA8
:1002500070474FF0000200B5134694469646203989
:1002600022BFA0E80C50A0E80C50B1F12001BFF46F
:10027000F7AF090728BFA0E80C5048BF0CC05DF8D5
:1002800004EB890028BF40F8042B08BF704748BF23
:1002900020F8022B11F0804F18BF00F8012B704797
:1002A00070477047704710B5203AC0F00B80B1E836
:1002B0001850203AA0E81850B1E81850A0E818509B
:1002C000BFF4F5AF5FEA027C24BFB1E81850A0E8A4
:1002D000185044BF18C918C0BDE810405FEA827CBE
:1002E00024BF51F8043B40F8043B08BF7047D207D5
:1002F00028BF31F8023B48BF11F8012B28BF20F876
:10030000023B48BF00F8012B7047754600F02CF8FF
:10031000AE4605006946534620F00700854618B0F2
:1003200020B5FFF73FFFBDE820404FF000064FF03B
:1003300000074FF000084FF0000B21F00701AC461A
:10034000ACE8C009ACE8C009ACE8C009ACE8C00939
:100350008D46704710B50446AFF300802046BDE8D7
:100360001040FFF70ABF0000004870475800002007
:1003700001491820ABBEFEE7260002007047FEE7E9
:100380007047402000F0C2BB08B572B60025064E8B
:10039000064C2021304600F0BAFC00950098401C25
:1003A0000090A042FAD3F4E7000C0140E09304006F
:1003B00090F82020012A07D0022A05D0416A41F492
:1003C0008021416201207047006842690A4342610E
:1003D00000207047F0B590F820500468A468012D03
:1003E00005D0022D03D0416A41F480214DE014F084
:1003F000406F01D1E50045D5C4F301640125A54056
:100400001D608D684FF4C0739DB1CE6835434E6852
:1004100045EAC605066803EB0417F5514FF4C275AB
:10042000076805EB04150E697E51097D012905D089
:1004300009E00E88CD6845EA4655EBE701684E595C
:1004400046F480764E511179D2F805504FF4C676B5
:1004500041EA0521056806EB0416A9511178D2F886
:1004600001204FF4C47541EA0221026805EB04152E
:100470005151006803EB0411425842F0010242500E
:100480000020F0BD416A41F4001141620120F0BD3D
:1004900010B590F820300268012B07D0022B05D050
:1004A000416A41F480214162012010BDD2F800026E
:1004B00040F00100C2F80002087D00F01F03012097
:1004C0009840D2F81C328343C2F81C32CB69B3B9CE
:1004D000D2F80C328343C2F80C328C894B6864F337
:1004E0001F434C6902EBC404C4F840320C890B680A
:1004F00064F31F434C6902EBC404C4F84432CB6973
:10050000012B16D1D2F80C320343C2F80C320C88FE
:100510004B6864F31F434C6902EBC404C4F84032D7
:100520000C89CB6864F31F434C6902EBC404C4F824
:1005300044328B69002BD2F804320FD053EA000307
:10054000C2F804320B69002BD2F8143208D00343EE
:10055000C2F81432096A012904D008E08343EFE7A6
:100560008343F5E7D2F81C120143C2F81C12D2F8FB
:10057000000220F00100C2F80002002010BD704708
:1005800070B590F82040012C05D0022C03D0416AB0
:1005900041F4802128E0046809B32469A40720D02D
:1005A0004FF4D874056804EB01142D5915F00405B7
:1005B000956005682D591AD0ED08556005682C59CD
:1005C00004F00204D4604FF4DA74056804EB0114FB
:1005D0002E5906F00F06082E0CD308250DE0E4680E
:1005E000DCE7416A41F400114162012070BD6D0DEC
:1005F0001560E3E72D5905F00F05156105682D59C4
:10060000C5F30725956105682C59240C54614FF4F6
:10061000DC72046802EB0112A4581C700468A45830
:10062000240A5C700468A458240C9C700468A258C6
:10063000120EDA704FF4DE72046802EB0112A45855
:100640001C710468A458240A5C710468A458240C22
:100650009C710468A258120EDA71006829B1016910
:1006600041F020010161002070BDC16841F020010E
:10067000C160F8E72DE9F05F05460068002446698F
:10068000D0F804908768D0F80CB0D0F810A0D0F85B
:100690001880F10748D0F90714D001218160B8070C
:1006A00003D5284600F00BFA0CE0780702D54FF48A
:1006B000006407E0380702D54FF4805402E0284672
:1006C00000F0FCF9F80516D529684FF480708860B1
:1006D000B80503D5284600F0F4F90CE0780502D5FA
:1006E00044F4005407E0380502D544F4804402E0A5
:1006F000284600F0E5F9F80316D529684FF4803054
:100700008860B80303D5284600F0DDF90CE07803D3
:1007100002D544F4004407E0380302D544F48034A1
:1007200002E0284600F0CEF9300707D55FEACB603B
:1007300004D52968102044F40074C86070074FF095
:10074000080707D55FEA0B7004D52868C7602846FC
:1007500000F05AF9B00706D52868C068800702D0B3
:10076000284600F053F9700607D55FEACA6004D541
:100770002968102044F480640861B00607D55FEA58
:100780000A7004D528680761284600F067F9F0066A
:1007900006D528680069800702D0284600F05FF976
:1007A000B00308D55FEAC96005D529681020486004
:1007B000284600F055F9F00307D55FEA097004D523
:1007C00028684760284600F07FF9300446D55FEA84
:1007D000497040D5F00504D55FEAC87001D044F0F7
:1007E0000104B00504D55FEA887001D544F0020425
:1007F000700504D55FEA487001D544F00404300563
:1008000029D518F0700F26D008F07000402815D0B8
:1008100006DC102809D020280AD0302816D10AE09A
:1008200050280ED0602811D10EE044F008040DE0ED
:1008300044F010040AE044F0200407E044F04004CF
:1008400004E044F0800401E044F480742868816985
:1008500021F070018161296804204860002C05D0D6
:10086000686A204368622846FFF789FEBDE8F09F6A
:1008700070B5040003D094F8200010B104E001200A
:1008800070BD204600F082F82068016841F0010147
:10089000016000F049FA0546052604E000F044FA3C
:1008A000401B0A2811D820684068C007F6D020688D
:1008B000016821F00201016000F036FA05460BE004
:1008C00000F032FA401B0A2806D9606A40F4003072
:1008D000606284F82060D2E7206840688007EFD427
:1008E000207E0128206801683DD021F08001016050
:1008F000607E01282068016838D021F04001016045
:10090000A07E01282068016833D021F02001016019
:10091000E07E0128206801682ED041F010010160BE
:10092000207F01282068016829D021F0080101609A
:10093000607F01282068016824D021F00401016053
:10094000D4E902010843D4E9041211430843616861
:10095000491E08432168C86100206062012084F8B4
:100960002000002070BD41F08001C0E741F040014F
:10097000C5E741F02001CAE721F01001CFE741F0BF
:100980000801D4E741F00401D9E7000010B586B0B2
:10099000002100910191029103910068174988425A
:1009A0002AD11748C16941F00071C161C16901F0E4
:1009B00000710491816941F0040181618069114CE9
:1009C00000F0040004904FF4006000906946204657
:1009D00000F0A8F8A01400900220019003200390DA
:1009E0006946204600F09EF800221146142000F0CF
:1009F00007FA142000F0F6F906B010BD00640040BC
:100A000000100240000801407047000030B589B076
:100A100007AB6A460021FFF7B3FD08B1FFF7B4FC4E
:100A20000098012813D10398002810D1094D2C7883
:100A3000094807A900EBC400049AFFF7C5FBE91CAD
:100A40000498085584F0010028700120687009B0EE
:100A500030BD0000000000202000002070477047DB
:100A60007047000070B5044690F82000012804D0BB
:100A7000606A40F40020606218E0022084F82000E0
:100A80002068016821F00101016000F04DF9054680
:100A90000EE000BF00F048F9401B0A2808D9606A40
:100AA00040F400306062052084F82000012070BD11
:100AB00020684068C007EDD1606270BD7047704724
:100AC00070477047704770477047000070B5044624
:100AD00000F02AF90546601C02D00448007804445E
:100AE00000F022F9401BA042FAD370BD1000002094
:100AF000402806D10349012088702021024800F0D7
:100B000006B9704700000020000C0140044910B5F0
:100B10000A68024202D00860FFF7EAFF10BD000039
:100B2000140401402DE9F84FDFF8B8910024A9F131
:100B3000040B23460F2709F1040AABF1040EC9E0A8
:100B40000125A5402A40AA427DD1674ED1F804C0B4
:100B5000ACEB0608B44532D014DCBCF1030F3AD03C
:100B600009DCBCF1000F2AD0BCF1010F1CD0BCF194
:100B7000020F31D11DE0BCF1110F17D0BCF1120FE3
:100B80002AD119E0B8F5881F19D006DCB8F5803FE6
:100B900015D0B8F5801F1FD111E0B8F5001F0ED099
:100BA000B8F5041F18D10AE0CB6815E0CB681B1D0F
:100BB00012E0CB6808330FE0CB680C330CE08B6895
:100BC0002BB1012B4FF0080303D0456104E004234F
:100BD00002E0056100E00023FF2A01D8064601E09B
:100BE00000F104064FEA840501D9A5F12005D6F8E5
:100BF000008007FA05FC28EA0C0803FA05F548EA24
:100C00000508C6F800804D68ED0062D5374DAE6925
:100C100046F00106AE61AD6924F0030605F001055A
:100C20000095334D06EB050CDCF80850A607360F8F
:100C300007FA06F825EA0805DFF8B880404503D131
:100C40004FF0000817E044E0DFF8AC80404502D1E7
:100C50004FF001080FE0DFF8A480404502D14FF0CB
:100C6000020808E0DFF89880404502D14FF0030801
:100C700001E04FF0040808FA06F848EA0508CCF845
:100C800008804D68D9F80060ED024D4601D5164345
:100C900000E096432E604D68DAF80060AD025546DC
:100CA00001D5164300E096432E604D68DBF80060E6
:100CB000AD035D4601D5164300E096432E604D68B6
:100CC000DEF80060ED03754601D5164300E096435B
:100CD0002E60641C0D682A46E5407FF431AFBDE804
:100CE000F88F0000080401400000111000100240BD
:100CF0000000014000080140000C014000100140CC
:100D0000001401408068084000D001207047C2688C
:100D100021EA02030A4043EA0241016170470AB135
:100D2000016170470904FBE70148806870470000D3
:100D300010000020024881680278114481607047E9
:100D400010000020074810B5016841F01001016053
:100D5000032000F075F80F2000F006F800F024F8EA
:100D6000002010BD0020024070B50D4D04464FF428
:100D70007A712878B1FBF0F00A490968B1FBF0F00C
:100D800000F0BCFA48B9102C07D200222146501EB0
:100D900000F036F800206C6070BD012070BD0000CE
:100DA000100000201C0000200C4808B5816941F0AB
:100DB00001018161816901F001010091C16941F086
:100DC0008051C161C06900F08050009004484168C2
:100DD00021F0E06141F00071416008BD0010024067
:100DE00000000140002809DB00F01F0201219140B2
:100DF0004009800000F1E020C0F8001170470000B9
:100E0000F0B40E4B1B680C46C3F30223C3F1070575
:100E1000042D00D90425191D072901D2002300E063
:100E2000DB1E012606FA05F1491E214099409E402D
:100E3000761E16403143F0BC00F0C7BC0CED00E05C
:100E4000064900F0070208684FF6FF03184040EA21
:100E50000220034A10430860704700000CED00E0D8
:100E60000000FA052DE9F0470F46050061D0434E1A
:100E7000306800F00700B84209D2306820F007005F
:100E800038433060306800F00700B84251D128681C
:100E90003B4C810712D5400703D5606840F4E06001
:100EA00060602878000703D5606840F46050606097
:100EB0006068A96820F0F000084360602878C007E7
:100EC00028D06868012810D02168022810D089072E
:100ED00000292EDA616821F0030101436160FFF708
:100EE00023FF804641F288390DE021688903EFE74E
:100EF0008901EDE7FFF718FFA0EB0801494502D98A
:100F00000320BDE8F0876068696800F00C00B0EB72
:100F1000810FEFD1306800F00700B8420BD930687C
:100F200020F0070038433060306800F00700B84216
:100F300001D00120E5E72878400705D56068E96819
:100F400020F4E060084360602878000706D56068F8
:100F5000296920F4605040EAC100606000F018F890
:100F60006168084AC1F30311515CC8400649086032
:100F700006480068FFF7F8FE0020C2E700200240A4
:100F8000001002400E1900081C0000201400002070
:100F90000E4A51680E4801F00C03042B11D0082BA7
:100FA0000FD10C48C1F38343C903C05C0AD5516813
:100FB000084AC1F34041921E515C054A5043B0FBC0
:100FC000F1F07047044948437047000000100240A8
:100FD00000127A00FE18000800093D002DE9F84FC4
:100FE000040070D02078C04DC00749D06868C0F3B5
:100FF0008100012807D06868C0F38100022809D168
:101000006868C00306D52868800339D56068002861
:10101000E7D035E06068B0F5803F0BD010B1B0F597
:10102000A02F11D0286820F480302860286820F490
:10103000802002E0286840F480302860606890B129
:10104000FFF772FE06460AE0286840F48020286018
:10105000F0E700BFFFF768FE801B642873D828689C
:101060008003F7D50CE0FFF75FFE064605E000BF02
:10107000FFF75AFE801B6428F0D828688003F7D455
:1010800020789A4E80074FF001094FF0000839D5BB
:10109000686810F00C0F07D06868C0F38100022860
:1010A00009D16868C00306D42868800714D5206970
:1010B000012808D110E02069B0B1C6F80090FFF710
:1010C00033FE074605E00AE1FFF72EFEC01B0228AB
:1010D000C4D828688007F7D52868616920F0F8002F
:1010E00040EAC10028600DE0C6F80080FFF71CFE52
:1010F000074604E0FFF718FEC01B022823D8286823
:101100008007F7D4207800072CD57948A169D9B198
:10111000C0F80090FFF708FE074604E0FFF704FE62
:10112000C01B02280FD8686A8007F7D571484FF4B2
:10113000FA510068B0FBF1F0009000BF0098411E2A
:101140000091FAD20EE080E0C0F80080FFF7ECFDDD
:10115000074604E0FFF7E8FDC01B022875D8686A5F
:101160008007F7D42078400760D5E8690027C000E1
:1011700008D4E86940F08050E861E869012700F090
:10118000805000905C480168C90513D4016883460B
:1011900041F480710160FFF7C7FD824606E000BFA1
:1011A000FFF7C2FDA0EB0A0064284ED8DBF8000070
:1011B000C005F5D5E06801280AD008B1052813D08C
:1011C000286A20F001002862286A20F0040002E06A
:1011D000286A40F001002862E06841F2883B98B13B
:1011E000FFF7A2FD82460BE0286A40F00400286267
:1011F000EEE700BFFFF798FDA0EB0A0159455AD86A
:10120000286A8007F6D50CE0FFF78EFD824605E0E0
:10121000FFF78AFDA0EB0A0159454CD8286A8007E0
:10122000F6D41FB1E86920F08050E861E06988B326
:101230006968C1F38101022944D00228C6F86080A0
:1012400004D0FFF771FD044638E034E0FFF76CFD91
:10125000074604E0FFF768FDC01B02282BD828686A
:101260008001F7D4206AB0F5803F05D16868A16895
:1012700020F4003008436860D4E908010843696835
:1012800021F4741108436860C6F86090FFF74CFDC4
:10129000044606E025E000BFFFF746FD001B0228DC
:1012A00009D828688001F7D51BE000BFFFF73CFD97
:1012B000001B022802D90320BDE8F88F28688001AE
:1012C000F4D40EE00128F7D06868226A00F4803177
:1012D000914204D1616A00F47010884201D001206B
:1012E000EAE70020E8E70000001002400000424268
:1012F000800442421C0000200070004010B5401ED7
:10130000B0F1807F01D3012010BD4FF0E024606177
:101310000F21601700F059FA0020A061072020611A
:10132000002010BDFEE7000010B51C488AB01A4925
:10133000016009210024C0E901144FF48021C0E9B3
:10134000034189004161047644768476C47604774B
:101350004477FFF78DFA08B1FFF716F801200194E2
:101360000294CDE9064003940594049408900094F7
:1013700069460A480994FFF78BF808B1FFF704F8AB
:101380000648FFF76FFB08B1FEF7FEFF0221034896
:10139000FFF70EF80AB010BD0064004030000020D6
:1013A000F0B585B000242148009401940294039480
:1013B000816941F020018161816901F0200104917E
:1013C000816941F004018161816901F004010491A6
:1013D000816941F0080181618069154F00F00800C2
:1013E0004FF490760490002231463846FFF797FC80
:1013F000402000900F480125CDE9010569460E48BF
:10140000FFF790FB0320CDE90240CDE90065694676
:101410003846FFF787FB002211461720FFF7F0FC44
:101420001720FFF7DFFC05B0F0BD00000010024000
:10143000000C01400000211000080140FEE7FEE71B
:1014400070B500240021204600F0EAF800250020B5
:1014500000F072F96D1CEDB2802DF8D3641CE4B27B
:10146000082CEFD370BD000010B586B000200290AC
:101470000F48816941F00801816180690D4C00F0DD
:1014800008000490C02000901120019003200390D8
:1014900069462046FFF746FB012240212046FFF720
:1014A0003EFC012280212046FFF739FC06B010BD2A
:1014B00000100240000C01402DE9F0410024144DC1
:1014C0000746802626FA04F0384201D0012200E0C7
:1014D000002280212846FFF722FC012240212846D5
:1014E000FFF71DFC002240212846FFF718FC641C72
:1014F000E4B2082CE6D3012240212846FFF70FFC76
:101500002846BDE8F04100224021FFF708BC00005A
:10151000000C014010B50B4C012280212046FFF742
:10152000FEFB012240212046FFF7F9FB002280212B
:101530002046FFF7F4FB20460022BDE81040402182
:10154000FFF7EDBB000C014010B5094C00228021D3
:101550002046FFF7E4FB012240212046FFF7DFFB96
:1015600020460122BDE810408021FFF7D8BB0000D3
:10157000000C014010B56420FFF7A8FAFFF774FFD4
:10158000AE2000F0C8F8D52000F0C5F8802000F0AB
:10159000C2F8A82000F0BFF83F2000F0BCF8D3202C
:1015A00000F0B9F8002000F0B6F8402000F0B3F8E1
:1015B000A12000F0B0F8C82000F0ADF8DA2000F06B
:1015C000AAF8122000F0A7F8812000F0A4F8CF209C
:1015D00000F0A1F8D92000F09EF8F12000F09BF86F
:1015E000DB2000F098F8302000F095F8A42000F0FF
:1015F00092F8A62000F08FF88D2000F08CF81420CF
:1016000000F089F8AF2000F086F8BDE81040FFF741
:1016100017BF0246012000E05043491EFCD270472C
:1016200010B50C4640F0B00000F075F8102040EA0C
:10163000141000F070F804F00F00BDE8104000F046
:101640006AB800002DE9F0410746CE004000083E90
:10165000801E15464FF0FF38F1B2C0B2FFF7E0FF31
:101660001148002400EB05152819A0F5805090F8CA
:10167000000E00F061F8641CE4B2082CF4D308EB0F
:101680004700F1B2C0B2FFF7CBFF00242819A0F544
:10169000805090F8080E00F04FF8641CE4B2082C5B
:1016A000F4D3BDE8F08100001E1900082DE9F041D7
:1016B0001D4617460E468046002415E0291B1020C3
:1016C000491EFFF7A6FFB7FBF0F000F00F0206EB94
:1016D0000400C1B20A2A404601D2303200E037325B
:1016E000FFF7B0FF641CE4B2AC42E7D3BDE8F08181
:1016F0002DE9F04115460E460746002406E0301954
:10170000C1B23846FFF79EFF641CE4B22A5D002A8E
:10171000F5D1BDE8F08110B50446FFF7FBFE782057
:10172000FFF7CAFE0020FFF7C7FE2046FFF7C4FE02
:10173000BDE81040FFF708BF10B50446FFF7EAFE0A
:101740007820FFF7B9FE4020FFF7B6FE2046FFF7EE
:10175000B3FEBDE81040FFF7F7BE70477047FFF7D4
:10176000E9BA30B58FB028216846FEF772FD142122
:101770000AA8FEF76EFD01210804CDE9001000243F
:10178000029402250491CDE907504FF4E01009902E
:101790006846FFF723FC60B90F20CDE90A0568020F
:1017A000CDE90C4002210AA80E94FFF75BFB00284C
:1017B00001D0FEF7E9FD0FB030BD70470148FEF7DC
:1017C00059BF000030000020FEE70907090E00287D
:1017D00004DB00F1E02080F80014704700F00F00F7
:1017E00000F1E02080F8141D7047000088B0FFF77A
:1017F000A9FAFFF7B6FFFFF7D3FDFFF795FD6420C9
:10180000FFF764F9FFF7B6FE0A20FFF75FF9012141
:1018100035A20846FFF76CFFDFF8D090344D4FF04B
:101820000008A87820B3444685F80280402131485A
:10183000FFF768FAE0B918216846FEF70AFD0120B3
:10184000009008202A4A0490039402948DF81440D2
:1018500006AB521D69462848FEF7BCFD244900200E
:10186000491D0A5C521C0A54401CC0B20828F8D317
:1018700068780028D5D028781D4F80F00106002018
:10188000FF1C2BE0441C032C09D209EBC6010223E8
:101890000A5C00EB4000401CC1B201201BE0052C9B
:1018A00009D209EBC6010A5C00EB4000401FC1B23F
:1018B000022318460FE009EBC601072C0A5C00EB77
:1018C000400004D20B38C1B20223032003E01138D8
:1018D000C1B202230420FFF7E9FEE0B2B95D814204
:1018E000D0D885F801809CE74F4B000020000020F5
:1018F0000000002000080140300000200102020327
:101900000405060708090A0B0C0D0E0F1010000045
:10191000000000000000010203040607080900009F
:1019200000000000000000000000000000000000B7
:1019300000F800000000000000333000000000103C
:101940000C06100C0600000000000000000040C063
:101950007840C0784000043F04043F040400007055
:1019600088FC08300000001820FF211E0000F0084D
:10197000F000E018000000211C031E211E0000F0F2
:101980000888700000001E2123241927211010163A
:101990000E00000000000000000000000000000039
:1019A00000E01804020000000007182040000002B8
:1019B0000418E0000000004020180700000040402C
:1019C00080F0804040000202010F0102020000008E
:1019D00000F0000000000101011F010101000000F2
:1019E00000000000000080B0700000000000000057
:1019F00000000000000000010101010101010000E0
:101A00000000000000000030300000000000000076
:101A1000000080601804006018060100000000E06B
:101A200010080810E000000F102020100F00001018
:101A300010F8000000000020203F2020000000706F
:101A40000808088870000030282422213000003067
:101A50000888884830000018202020110E0000005F
:101A6000C02010F8000000070424243F240000F8E0
:101A70000888880808000019212020110E0000E0C5
:101A8000108888180000000F112020110E00003867
:101A90000808C83808000000003F0000000000707F
:101AA000880808887000001C222121221C0000E008
:101AB00010080810E0000000312222110F00000081
:101AC00000C0C00000000000003030000000000036
:101AD00000800000000000008060000000000000A6
:101AE000804020100800000102040810200040403F
:101AF0004040404040000404040404040400000882
:101B00001020408000000020100804020100007036
:101B100048080808F0000000003036010000C0301E
:101B2000C828E810E0000718272423140B00000041
:101B3000C038E0000000203C23020227382008F8CB
:101B4000888888700000203F202020110E00C030BF
:101B5000080808083800071820202010080008F896
:101B600008080810E000203F202020100F0008F88F
:101B70008888E8081000203F20202320180008F85B
:101B80008888E8081000203F200003000000C030D3
:101B900008080838000007182020221E020008F854
:101BA00008000008F808203F210101213F2000081B
:101BB00008F8080800000020203F20200000000056
:101BC0000808F8080800C08080807F00000008F83E
:101BD00088C028180800203F20012638200008F877
:101BE000080000000000203F20202020300008F8DE
:101BF000F800F8F80800203F003F003F200008F8F8
:101C000030C00008F808203F200007183F00E0100F
:101C100008080810E0000F10202020100F0008F81E
:101C200008080808F000203F210101010000E01031
:101C300008080810E0000F18242438504F0008F856
:101C4000888888887000203F2000030C30200070B6
:101C50008808080838000038202121221C001808B4
:101C600008F8080818000000203F2000000008F8CD
:101C700008000008F808001F202020201F00087816
:101C8000880000C83808000007380E010000F80876
:101C900000F80008F800033C0700073C03000818A0
:101CA00068808068180820302C03032C3020083806
:101CB000C800C83808000000203F200000001008BD
:101CC0000808C83808002038262120201800000005
:101CD00000FE020202000000007F40404000000CB5
:101CE00030C000000000000000010638C000000203
:101CF0000202FE000000004040407F0000000000A3
:101D000004020202040000000000000000000000C5
:101D100000000000000080808080808080800002C1
:101D200002040000000000000000000000000000AD
:101D30008080808000000019242222223F2008F8A1
:101D4000008080000000003F112020110E000000E4
:101D5000008080800000000E112020201100000073
:101D600000808088F800000E112020103F20000025
:101D7000808080800000001F222222221300008029
:101D800080F0888888180020203F20200000000074
:101D9000808080808000006B94949493600008F8A9
:101DA000008080800000203F210000203F20008034
:101DB0009898000000000020203F20200000000034
:101DC00000809898000000C08080807F000008F8A4
:101DD000000080808000203F24022D302000000879
:101DE00008F8000000000020203F20200000808034
:101DF000808080808000203F20003F20003F808046
:101E0000008080800000203F210000203F20000053
:101E1000808080800000001F202020201F00808004
:101E200000808000000080FFA12020110E00000033
:101E3000008080808000000E112020A0FF80808024
:101E400080008080800020203F21200001000000D1
:101E500080808080800000332424242419000080A6
:101E600080E0808000000000001F202000008080B3
:101E7000000000808000001F202020103F20808074
:101E800080000080808000010E3008060100808004
:101E90000080008080800F300C030C300F00008029
:101EA0008000808080000020312E0E312000808054
:101EB00080000080808080818E7018060100008084
:101EC0008080808080000021302C222130000000A2
:101ED0000000807C020200000000003F4040000043
:101EE0000000FF00000000000000FF0000000002F2
:101EF000027C800000000040403F0000000000061F
:101F000001010202040400000000000000000000C3
:101F1000301F0008000000202000000028010008F9
:101F2000501F00082000002098060000440100080F
:101F3000000000000001020304FFFEFDFC000000A1
:101F400001000000100000000000000000127A00F4
:04000005080000ED02
:00000001FF
